:020000040800F2
:10000000E0310020010100087D1C0008FD110008FE
:100010007B1C0008AD050008633F000800000000DD
:100020000000000000000000000000009133000804
:10003000A50C00080000000073010008C13B000887
:100040001B0100081B0100081B0100081B01000820
:100050001B0100081B0100081B0100081B01000810
:100060001B0100081B0100081B0100081B01000800
:100070001B0100081B0100081B0100081B010008F0
:100080001B0100081B0100081B0100081B010008E0
:10009000113F00081B0100081B0100081B0100089C
:1000A0001B0100081B0100081B0100081B010008C0
:1000B0001B0100081B010008000000001B010008D4
:1000C0001B01000800000000000000001B010008E8
:1000D00000000000313C00081B0100080000000087
:1000E0001B0100081B0100081B010008DFF80CD0F1
:1000F00000F07EF900480047B54F0008E0310020CD
:100100000648804706480047FEE7FEE7FEE7FEE7B1
:10011000FEE7FEE7FEE7FEE7FEE7FEE7E13B00085D
:10012000ED000008EFF3108072B6704780F310887E
:100130007047204C204D25604FF0000484F309885F
:100140001E4C4FF0010525701D4C4FF08055256069
:1001500062B6FEE730B41A4C4FF08055256030BCD3
:10016000704730B4164C4FF08055256030BC704756
:1001700000BF72B6EFF3098028B1203880E8F00F95
:1001800010490968086000B50F4880475DF804EB26
:100190000E480F490A7802700A480E490A68026040
:1001A000106890E8F00F203080F309884EF0040EBC
:1001B00062B6704720ED00E00000FFFFF70300206B
:1001C00004ED00E01004002029260008F4030020BC
:1001D000F503002018040020D2B201E000F8012B42
:1001E000491EFBD270470022F6E710B513460A46B7
:1001F00004461946FFF7F0FF204610BD80EA0102D1
:1002000010B502F00043400022D04A001FD0010E7A
:1002100001EB1261C0F35600C2F3560240F4000035
:1002200042F40002A0FB022000047F39140400D035
:10023000401C50EA124001D44000491EC2B20C06D4
:1002400004EBD010401C4008802A02D003E00020BC
:1002500010BD20F00100002900DA0020184310BD75
:1002600030B480EA010202F0004530F0004221F093
:10027000004013D090B1C30DD40DC2F31601C0F3EA
:100280001600E41A41F4000140F400027D3491426A
:1002900001D3641C00E04900002C02DA30BC0020CD
:1002A00070474FF400000023914201D3891A0343A1
:1002B00040084FEA4101F7D151B1914202D14FF0CC
:1002C000004105E002D24FF0010101E06FF00101B1
:1002D00003EBC450284430BC00F053B8C10F80EA8F
:1002E000E0700844CA079623002100F053B800F0DC
:1002F000004220F00040C10DC0F3160040F40000A1
:100300007F2901DA00207047962903DCC1F19601AC
:10031000C84001E096398840002AF4D04042704736
:100320002DE9F05F0546002092469B46884606462A
:10033000814640241BE0284641464746224600F0BD
:1003400078F853465A46C01A914110D311461846C0
:10035000224600F05FF82D1A67EB01084F4622464F
:100360000120002100F056F817EB00094E41201E35
:10037000A4F10104DFDC484631462A464346BDE885
:10038000F09F0029A8BF7047401C490008BF20F01B
:100390000100704710B4B0FA80FC00FA0CF050EA8B
:1003A000010404BF10BC704749B1CCF1200421FA0C
:1003B00004F411FA0CF118BF012121430843A3EB07
:1003C0000C01CB1D4FEA00614FEA102042BF002014
:1003D00010BC704700EBC35010440029A4BF10BCF0
:1003E0007047401C490008BF20F0010010BC704756
:1003F000064C074D06E0E06840F0010394E8070072
:1004000098471034AC42F6D3FFF774FEC089010858
:10041000E0890108202A04DB203A00FA02F10020DA
:1004200070479140C2F1200320FA03F31943904032
:100430007047202A04DB203A21FA02F0002170479D
:1004400021FA02F3D040C2F120029140084319463C
:10045000704770B58D1810F8014B14F0030201D1EC
:1004600010F8012B231106D110F8013B03E010F81E
:10047000016B01F8016B521EF9D1ABB110F8012BE1
:1004800004F00C048A1A0C2C03D0A2EB84129B1CDF
:1004900008E010F8014BA2EB0422F8E712F8014B38
:1004A00001F8014B5B1EF9D5A942D4D3002070BDE1
:1004B00038B50121102002F08DFD0120ADF80000BB
:1004C00003248DF8024010200B4D8DF8030069467F
:1004D000284600F027FD0220ADF800008DF802400C
:1004E00004208DF803006946284600F01BFD03A098
:1004F00003F0E6FD38BD0000001001406164632098
:10050000696E697420656E640A00000008B50121F7
:10051000042002F05FFD4FF40040ADF8000003201E
:100520008DF8020010208DF803006946034800F0A2
:10053000F9FC03490020C1F8BC0108BD00080140D6
:100540000000214208B50121102002F043FD0420E3
:10055000ADF8000003208DF8020010208DF8030094
:100560006946024800F0DEFC08BD000000100140B2
:1005700070B54FF0C0452A242C800B4C060A26800B
:10058000C0B22080080A2080C8B220802B2028809A
:10059000100A2080D0B22080180A2080D8B2208093
:1005A0002C20288070BD000000000260FEE7C1B270
:1005B000000A40EA012070472DE9F84F0020ADF80D
:1005C0000000DFF834A14BF6BF7648F280074A4DB1
:1005D0004A4C40F68F7848F60F7BDFF824910AF1F9
:1005E000440A31E00888474A10F00F00107034D0F8
:1005F000454901EB8001D1F8002CADF80020BDF891
:10060000002012040BD5D1F8002C02EA0802C1F830
:10061000002C3E4901EB800050F8040C8047BDF8E7
:100620000000000610D537483749007801EB8001FB
:10063000D1F8002C02EA0B02C1F8002C344901EB7E
:10064000800050F8040C8047DAF800004946A9F809
:1006500000000004C6D4BDE8F88F286820802088F8
:1006600000F030006080208800F44050208028682E
:10067000304080F4005080F0200038432860088823
:10068000C006286815D400EA0B00286000F0B8FD09
:1006900026E02188890401D580F400506188C906CC
:1006A00026D46188890601D580F02000384328606F
:1006B000D1E7ADF80000BDF80000000506D52868B8
:1006C00000EA0800286002F09FFF09E0BDF8000082
:1006D0000004B9D5286800EA0800286002F0F6FB9B
:1006E000286821883040C904D3D580F48050D0E7F1
:1006F00080F01000D5E70000005C00403E000020C4
:10070000660000202C0000200050004084000020E3
:1007100068000020810008480844D0F8001C490403
:1007200009D5D0F8001C48F68F7211404CF28002B7
:100730001143C0F8001C7047005000408100084879
:100740000844D0F8001C490609D5D0F8001C48F62A
:100750008F72114048F2C0021143C0F8001C70476C
:1007600000500040810006480144D1F8000C48F6D2
:100770008F62104048F280021043C1F8000C7047AD
:1007800000500040124910B50A680628117801F09F
:100790007F0103D1012901D1537913B121290AD055
:1007A00013E09078222802D0212802D00DE00949D8
:1007B00004E0094902E0032807D1084929B10020D3
:1007C000916150828847002010BD022010BD0000BA
:1007D0003000002021080008F9070008050800087B
:1007E000014903F0CFB80000B0000020014903F038
:1007F000C9B80000A8000020014903F0C3B80000F8
:10080000B800002008B10448704704490120096875
:100810000882002070470000A40000203000002063
:100820000020704705490968C978042901D90020CA
:100830007047034A02EBC10103F0A4B83000002066
:10084000F000002009B9002800D002207047000005
:1008500006490968097801F07F01212901D10B2897
:1008600001D00220704700F083B800003000002063
:1008700070B53248002100688172C1723049C9796F
:100880004172002002F086FD4FF40071002002F05A
:100890004FFE1021002002F021FE1821002002F05E
:1008A000A5FD5821002002F0FBFD0020FFF75AFFB4
:1008B000244890F82C10002002F0A8FD002002F03F
:1008C000DDFD0021012002F033FE9821012002F01D
:1008D0008DFDD821012002F0E3FD4021012002F02E
:1008E00095FD4FF440542146012002F0AFFD202138
:1008F000012002F0F3FD0021022002F019FE4FF466
:100900009071022002F072FD4FF4B071022002F0EB
:10091000C7FD4021022002F079FD2146022002F0AD
:1009200095FD2021022002F0D9FD074D01242C6005
:10093000002002F037FD2C6070BD00003000002068
:100940001A5C0008C0000020340100200348807AAF
:10095000002802D00249052008607047E00400200A
:100960003401002001490420086070473401002050
:10097000034804490068C078086000207047000000
:1009800030000020A40000207047704710B500F030
:1009900001FC054800240068847202F0EDFA03F0BF
:1009A000B9FA0248046010BD300000203401002074
:1009B0002DE9F047DFF89480254F4FF03009D8F843
:1009C000001001F11005088A0E7A08B9042E04D02F
:1009D000AC88A04215D8042614E01E4801780129ED
:1009E00003D00726102038802BE01B4A0021126814
:1009F0001A4B120403EBD2325160A7F80090017039
:100A00001FE00226844200D90446A9682046884790
:100A10008246002000F068FB01462246504603F063
:100A2000A1FA2146002002F04BFD2888001B2880F7
:100A3000688820446880A7F8009009494FF4405026
:100A40000880D8F800000672BDE8F087300000206A
:100A50004000002028000020505C00400060004062
:100A60003E0000202DE9F047224EDFF88C80302731
:100A7000356835F8100FA968A9B100B3AC88844275
:100A800000D904462046884781462888001B2880D4
:100A9000688820446880002000F006FB014622465A
:100AA000484602F037FA288848B114494FF44050BC
:100AB00008800021084602F003FDA8F8007028888D
:100AC000A988884201D3032001E020B105203168C4
:100AD0000872BDE8F08731680620087208490020D6
:100AE0000968084A090402EBD1314860A8F800708F
:100AF000EFE7000030000020400000203E00002012
:100B0000505C004000600040F8B55D4C5D4D09262A
:100B10002068002729684278062A05D0AAB1082A49
:100B20004DD00A2A50D06BE00278520668D1807806
:100B3000012804D0022804D0032804D060E0C96949
:100B400056E0096A54E0496A52E04288B2BBC28862
:100B5000022A55D102798ABB0278530601D18388D3
:100B600033B102F07F02012A04D0022A0CD047E000
:100B700045493DE08A69407900219047F0B92068F5
:100B8000807A0028F4D13BE0417901F00F0001F0B8
:100B900070020B063D4901EB8001D1F8001C03D522
:100BA000C1F30111090102E0C1F301310903384B1E
:100BB0001B78834224D90AB90029D9D120E00078D2
:100BC00040061DD1334913E0027802F07F02012A6A
:100BD00016D1827AA2B1428892B9027982B9C288CA
:100BE000012A0DD18A6940790021904740B92A49EC
:100BF00031B120684782816100208847002006E0EB
:100C000029682068096940788847032813D021683B
:100C10000A8AA2F57F43FF3B0BD002280ED06AB1AF
:100C20000878000626D5C888009082420AD9088232
:100C300018E00E72F8BD20680672F8BD4FF008008B
:100C40000872F8BD0ED22868144B90F82C0082422E
:100C500001D21F7006E0B2FBF0F400FB142008B9CB
:100C600001201870286890F82C008882BDE8F840B0
:100C7000FFF79EBE03200872094900030880F8BDF3
:100C80003000002034000020C93900080050004026
:100C9000A00000205D390008A139000828000020CC
:100CA0003E000020704701B581B000204FF4E151B3
:100CB000009001E0401E019001980028FAD10098B0
:100CC000401C00908842F7DB0CBD704710B50DA0AA
:100CD00003F0F6F9012000F0F7F90E490860086802
:100CE000982182B20C4802F015F94FF440510120CE
:100CF00002F0ACFB094807490068BDE8104001F06C
:100D0000B7B900006461746120697320636F6D6915
:100D10006E670A005C000020FC04002070010020C7
:100D20007047000010B5022000F0CEF90749486076
:100D300048684FF4907182B2054802F0EBF8BDE8C4
:100D400010404FF44051022002F080BB5C000020B4
:100D5000FC0400207047000070B505464FF43026B3
:100D6000304600F059F8042811D1094C206940F0B0
:100D7000020020616561206940F04000206130463A
:100D800000F04AF8216941F6FD721140216170BD01
:100D90000020024008490420CA68D20701D001207F
:100DA0007047CA68520701D502207047C968C90652
:100DB000FBD5032070470000002002400248016973
:100DC00041F080010161704700200240F0B5064605
:100DD0004FF400570D46384600F01EF804280CD199
:100DE000064C206940F0010020613580384600F053
:100DF00013F82169BA1E11402161F0BD00200240A4
:100E00000348024941600349416070472301674537
:100E100000200240AB89EFCD00B50346FFF7BAFFD3
:100E200003E000BFFFF7B6FF5B1E012803D0002BD5
:100E300000D1052000BD002BF4D1FAE78000A0F11D
:100E4000C0400029016802D041F0010101E0024ADE
:100E50001140016070470000FEFF0F0010B5D0E99F
:100E600001121143D0E903231A431143426911438C
:100E700082691143C2691143026A1143426A1143F4
:100E8000826A1143C26A1143026B114302689200E5
:100E9000A2F1C04211608168082907D10168890068
:100EA000A1F1C0410A6842F040020A60416BD1E9F9
:100EB000002342EA03128B688C891B0243EA044335
:100EC0001A430B8A42EA03520B7D896942EA0362A4
:100ED0000A4301688900A1F1C0414A60C16AB1F5C5
:100EE000804F08D000686FF070418000A0F1C040D2
:100EF000C0F8041110BD816BD1E9002342EA03124E
:100F00008B680C8A1B0243EA04531A430B7D8969E0
:100F100042EA036200680A438000A0F1C040C0F8C2
:100F2000042110BDF0B5CA78002502F00F03D206E7
:100F300001D58A7813430A784FF00F0E12F0FF0F95
:100F40004FF001021CD004680F8802FA05F6374002
:100F5000B74211D14FEA850C0EFA0CF724EA0707C5
:100F600003FA0CF43C43CF78282F02D0482F02D04C
:100F700002E0466100E006616D1C082DE4D30460C8
:100F80000C88FF2C1ED944685FF0000606F10807A4
:100F900002FA07F50F882F40AF420FD14FEA860CB7
:100FA0000EFA0CF7BC4303FA0CF73C43CF78282F1A
:100FB00000D14561CF78482F00D10561761C082EFD
:100FC000E4D34460F0BD0000F0B5144C002801DA11
:100FD000E36900E06368420D120185B2C0F3015776
:100FE0009540C0F30346032F05D0C2020AD5032261
:100FF000B240934307E023F07062636823F07063AC
:10100000636002E0AB4343F0706201B12A43002801
:1010100001DAE261F0BD6260F0BD00000000014055
:101020000246002092680A4200D0012070474161C8
:1010300070470161704700002DE9F047194C002707
:10104000C4F880713D4602E0042003F047FDD4F867
:1010500004010028F8D100264FF001094FEA4508A5
:10106000C4F88091042003F039FDC4F88071042095
:1010700003F034FDD4F80451761C45EA0805182E17
:10108000ECDBC4F88091042003F028FDC4F88071E3
:10109000042003F023FD2802C11700EB11600012A9
:1010A000BDE8F087000022420549096889B201EBDA
:1010B000C000044901EB4000008980B27047000085
:1010C000505C0040006000400549096889B201EBAE
:1010D000C000044901EB40008089C0F3090070475B
:1010E000505C0040006000400449096889B201EB8F
:1010F000C000034931F8100080B27047505C0040D6
:101100000060004030B403460C46500700D0012078
:1011100000EBD2005043C1B218785B78812809D324
:10112000402B07D3FF2B05D0FF2803D07F2B0DD2F8
:10113000403B0CE00020024604E000BF401C04F8E5
:10114000012BC0B28842F9D330BC7047413B813893
:10115000C0B2C0EB4015DBB205EB801003EB4000E2
:1011600048430B4B0C2A0CD0102A0DD0182AEBD177
:10117000D3F8192010440A460146204630BC02F03C
:1011800043BFD3F80920F5E7D3F81120F2E70000B8
:10119000F62400200A4810B50168001D0468001DEF
:1011A000006808180BD00822064900F057F80549D6
:1011B00020460422BDE81040103100F04FB810BDA9
:1011C000E8F7FF1F4400002038B50121402001F05E
:1011D00001FF0124ADF8004003208DF8020010202B
:1011E0008DF8030069460348FFF79CFE0248C0F8EB
:1011F000804138BD0018014000002342FEE7000096
:1012000010B5134C2068017A022904D0042902D0B9
:10121000062905D015E0FFF7CBFB2068007A11E026
:101220004178052909D10178490606D1C07802F034
:10123000B9F808480068006A804707480068806875
:101240008047082021680872BDE8104001F072BE96
:10125000300000203800002034000020F0B50023CA
:101260000A24302537261F4611E000BFB4EB107F5B
:1012700002D905EB107C01E006EB107C01F813C0ED
:1012800001EB430C00015B1C8CF80170DBB2934254
:10129000ECD3F0BD08B502226946034801F0F4FF23
:1012A00002490098086008BD000005084C010020B4
:1012B000F8B501210C2001F08DFEE020ADF8000012
:1012C0001025174E8DF8035003248DF8024069460F
:1012D0003046FFF727FEADF800408DF803508DF83B
:1012E000024069460F48FFF71DFE1F20ADF80000C1
:1012F00048208DF803008DF8024069463046FFF71C
:1013000011FE094D002400BF05EBC400818855F88B
:101310003400FFF78EFE641CE4B2052CF4D3F8BD54
:1013200000080140000C01404C040020F8B50121E8
:101330001C2001F04FFE4FF48070ADF80000102526
:101340008DF8035003248DF8024069462148FFF7C9
:10135000E9FD4FF46060ADF800001F4E8DF80350BA
:101360008DF8024069463046FFF7DCFD4FF45070BF
:10137000ADF80000194F8DF803508DF80240694612
:101380003846FFF7CFFD4FF4F070ADF80000482568
:101390008DF803508DF8024069463046FFF7C2FDD4
:1013A0008020ADF800008DF803508DF802406946AA
:1013B0003846FFF7B7FD0A4D002400BF05EBC40017
:1013C000818855F83400FFF734FE641CE4B2072C22
:1013D000F4D3F8BD00080140000C014000100140AA
:1013E0009C04002000B597B002200F90002005213A
:1013F000CDE910014FF08051CDE914011290139006
:1014000008210090CDE901011021CDE903100690DB
:1014100009020790CDE908010A900B900C900FA8E3
:101420000D900E906846FFF719FD01210020FFF78F
:1014300005FD17B000BD000070B54FF0C0452A2370
:101440002B800A4B0C0A1C80CEB21E801C80C9B2B5
:1014500019802B212980010A1980C4B21C801980AF
:10146000C0B218802C2028801A8070BD0000026055
:101470002DE9F04F8046A2EB0800401C8A4686B258
:10148000A3EB0A00401C87B20025DDF824B011E070
:1014900000240AEB050909E008EB04001FFA89F1B2
:1014A00080B25A46FFF7C8FF641CA4B2B442F3D31B
:1014B0006D1CADB2BD42EBD3BDE8F08F70B51D46DB
:1014C00014464B190A460119491E5B1E049EFFF77C
:1014D0004FF80020064A6C4306E03318315C5B7815
:1014E00003EB01211180801CB0EB440FF5D370BDDC
:1014F000000002602DE9F8430121080201F052FDCD
:1015000001217C2001F066FD10248DF803400325A5
:10151000DFF8A4808DF802506602ADF800606946DD
:101520004046FFF7FFFC2027ADF8007069462348CE
:10153000FFF7F8FC8DF8025018208DF803004CF2EC
:101540000370ADF8000069464046FFF7EBFC4FF62C
:101550008070ADF8000069461948FFF7E3FCADF86C
:10156000004069464046FFF7DDFCADF80070694673
:101570004046FFF7D7FC8020ADF8000069464046A2
:10158000FFF7D0FCE001ADF8000069464046FFF7E8
:10159000C9FC31464046FFF74CFD10214046FFF79D
:1015A00048FD20214046FFF744FD80214046FFF7DB
:1015B00040FDBDE8F8830000001401400010014028
:1015C000001801402DE9FF4F80461D460C468B4612
:1015D000580700D0012000EBD50069084843203AA5
:1015E00000F0FF0AD0B2002602903EE00C2D11D090
:1015F000102D0FD0182D3AD102981E4900EBC000D3
:1016000001EB80004FF00009875D380607D54FF6E3
:10161000FF7207E01849029801EB0010F2E70D98FD
:1016200020B9002221464046FFF706FF7806070E44
:101630001248641CA4B20188414518D9A4EB0B00E0
:10164000A84209D108F101001FFA80F80B485C4656
:10165000018841450BD906E009F1010000F0FF09BE
:10166000B9F1080FD1D3761CF6B25645BED3BDE80A
:10167000FF8F00009C2F0108AC290108E8240020FE
:101680002DE9FC4F8A4602EBC201CDE900109946D4
:1016900080460C2B04D0B9F1180F05D000243FE090
:1016A0004FF0480B002415E04FF0900B002405E0AC
:1016B000B9F10C0F0ED0B9F1180F33D11A490098B7
:1016C00001EB00105646075D0025380607D54FF69A
:1016D000FF7207E01549009801EBC000F2E70B9894
:1016E00020B9002231464046FFF7A6FE7806761E56
:1016F000070EB6B2072D0DD108F1010001991FFAAE
:1017000080F8A8EB0100182804D10AF108008846E7
:101710001FFA80FA6D1CEDB2082DD6D3641CE4B21A
:101720005C45C5DBBDE8FC8FF83C0108D8440108E6
:101730002DE9FE4F044600F0FF0A10190D461FFA6E
:1017400080F8DDE90C9B581987B2002619E0444562
:1017500002D318355446ADB2BD4214D200204FF624
:10176000FF71CDE9000102909BF800200C2329466F
:10177000204601F07DFF1834761CA4B20BF1010B5A
:10178000F6B24E45E3D3BDE8FE8F2DE9FE4F044689
:1017900000F0FF0A10190D461FFA80F8DDE90C9BD6
:1017A000581987B2002619E0444502D3183554462B
:1017B000ADB2BD4214D200204FF47841CDE9000112
:1017C00002909BF800200C232946204601F050FF90
:1017D0001834761CA4B20BF1010BF6B24E45E3D3DC
:1017E000BDE8FE8F2DE9FE4F044600F0FF0A1019F8
:1017F0000D461FFA80F8DDE90C9B581987B20026C8
:1018000019E0444502D318355446ADB2BD4214D256
:1018100000204FF6FF71CDE9000102909BF80020F7
:1018200018232946204601F023FF1834761CA4B261
:101830000BF1010BF6B24E45E3D3BDE8FE8F00007D
:1018400070B51D4614464B190A460119491E5B1E08
:10185000049EFEF78DFE002003496C4301E00E80DC
:10186000401C8442FBD870BD000002602DE9F843A3
:10187000FFF7B8FDF9484FF4F0764FF4A0770680F3
:1018800047804FF47A794846FFF70DFAF4484FF451
:101890000054046042F210752846FFF704FAF0483D
:1018A000001F04602846FFF7FEF9D3204507288073
:1018B000EC4C208841F288384046FFF7F4F9208844
:1018C0004046FFF7F0F920884046FFF7ECF9208802
:1018D0004046FFF7E8F920884046FFF7E4F9208802
:1018E0004046FFF7E0F9C02028804846FFF7DBF9C3
:1018F0000F2020804846FFF7D6F90F202080484669
:10190000FFF7D1F9C12028804846FFF7CCF94120E4
:1019100020804846FFF7C7F9C52028804846FFF7D2
:10192000C2F9002020804846FFF7BDF93A20208008
:101930004846FFF7B8F9B12028804846FFF7B3F9C9
:10194000D02020804846FFF7AEF91120208048467D
:10195000FFF7A9F9B62028804846FFF7A4F902202E
:1019600020804846FFF79FF9222020804846FFF755
:101970009AF9B72028804846FFF795F9C6202080BD
:101980004846FFF790F9E02028804846FFF78BF99A
:10199000002020804846FFF786F90B20208048462B
:1019A000FFF781F9102020804846FFF77CF90320DB
:1019B00020804846FFF777F9102020804846FFF73F
:1019C00072F9082020804846FFF76DF93320208007
:1019D0004846FFF768F9892020804846FFF763F9F9
:1019E000482020804846FFF75EF9072020804846BF
:1019F000FFF759F90E2020804846FFF754F90C20D4
:101A000020804846FFF74FF9282020804846FFF7FE
:101A10004AF92D2020804846FFF745F90F20208005
:101A20004846FFF740F9E12028804846FFF73BF998
:101A3000002020804846FFF736F9122020804846D3
:101A4000FFF731F9172020804846FFF72CF90320D3
:101A500020804846FFF727F9112020804846FFF7ED
:101A600022F9082020804846FFF71DF93720208002
:101A70004846FFF718F9672020804846FFF713F91A
:101A80004C2020804846FFF70EF90720208048466A
:101A9000FFF709F90F2020804846FFF704F90C20D2
:101AA00020804846FFF7FFF82F2020804846FFF7A8
:101AB000FAF8342020804846FFF7F5F80F20208000
:101AC0004846FFF7F0F8F22028804846FFF7EBF889
:101AD000182020804846FFF7E6F8A32020804846DB
:101AE000FFF7E1F8122020804846FFF7DCF80220DB
:101AF00020804846FFF7D7F8B22020804846FFF7FD
:101B0000D2F8122020804846FFF7CDF8FF20208031
:101B10004846FFF7C8F8102020804846FFF7C3F872
:101B2000002020804846FFF7BEF8F720288048466E
:101B3000FFF7B9F8A92020804846FFF7B4F89120B4
:101B400020804846FFF7AFF82D2020804846FFF759
:101B5000AAF80A2020804846FFF7A5F84F202080E9
:101B60004846FFF7A0F8F82028804846FFF79BF882
:101B7000212020804846FFF796F804202080484620
:101B8000FFF791F8362028804846FFF78CF8482068
:101B900020804846FFF787F83A2028804846FFF71C
:101BA00082F8662020804846FFF77DF8F9202880DB
:101BB0004846FFF778F8002020804846FFF773F882
:101BC000082020804846FFF76EF8F4202880484619
:101BD000FFF769F8002020804846FFF764F80020EE
:101BE00020804846FFF75FF8082020804846FFF72E
:101BF0005AF8912020804846FFF755F804202080AD
:101C00004846FFF750F8212028804846FFF74BF858
:101C1000112028804846FFF746F8292028804846AA
:101C2000FFF741F83A2028804846FFF73CF8552056
:101C300020804846FFF737F8212028804846FFF7E4
:101C400032F8002033463A4601460090FFF7F8FD8F
:101C5000BDE8F84304A002F033BA0000E8240020F5
:101C600014140140000002606C636420696E6974A2
:101C7000206F7665720A00007047FEE77047704774
:101C800070B50F23C47801780122F4B1144C246894
:101C9000457804F4E064C4F5E064240AC4F1040661
:101CA000E3408478B5401C402C4301F1E02123013E
:101CB00081F80034007800F01F018A40400980005C
:101CC00000F1E020C0F8002170BD01F01F0082404B
:101CD0004809800000F1E020C0F8802170BD0000BC
:101CE0000CED00E00249084302490860704700001B
:101CF0000000FA050CED00E070B52F4D2868017862
:101D000044784A0606D001F07F00012828D0022836
:101D10002BD035E0092C06D0052C07D0032C0ED093
:101D2000012C14D02CE001F099FE28E0C1787F2925
:101D30002ED8817861BB818851BB807A27E0C17839
:101D400001291DD18088D8B901F0A4FE17E0C1781F
:101D5000012915D1818899B9407A80060AD40FE00B
:101D60000B2C0DD101F0ECFE09E0012C02D0032C6C
:101D700003D005E001F074FD01E001F09DFE58B1D3
:101D80000E492046096849698847032802D018B1DE
:101D900008200DE009200BE0094A06200021126806
:101DA000084B120403EBD2325160074A30211180F4
:101DB0002968087270BD0000300000203400002047
:101DC000505C0040006000404000002070B586B0CC
:101DD00000F088F8354D00242C63AC70EC702C7248
:101DE000EC71EC60EC61AC616C616C70AC712046C4
:101DF00005F134010C54401CC0B20828FAD32C71F0
:101E00006C71AC622C6200F0F3FEC821284800F02F
:101E100027FF274A0020411C00EB80008BB202EB19
:101E2000800003EB830302EB83030470436088B2FA
:101E30000928F0D300EB800002EB800004704460BE
:101E40002A6100F0B1FE00F015FF80261948CDE9A7
:101E500001064FF6FF70009003253F23164A00212C
:101E60001648CDE9034500F061FA05AA14A13F2008
:101E700000F0ACFA0E480F4AC830CDE901064FF623
:101E8000FE7000903E23121F00211148CDE903454A
:101E900000F04CFA05AA0FA13E2000F097FA00F0DE
:101EA0001BFD06B0BDE8704000F022B8F003002032
:101EB000E8140020B0170020AC190020092E0008FB
:101EC00075432F4F532D49492049646C650000002C
:101ED000252E000875432F4F532D49492053746117
:101EE000740000000149002008807047EC030020C6
:101EF000704700000449C879012804D18878FF2878
:101F000001D2401C88707047F003002070B5144C5B
:101F1000E079012822D1FEF705F90546A07820B125
:101F2000401E10F0FF00A07013D1E07888B900F0D7
:101F3000E5FE0C48617950F82100A06222799142B7
:101F400007D0816B491C8163E068401CE060FEF7AC
:101F500008F92846BDE87040FEF7E8B870BD0000FB
:101F6000F0030020B019002070B505460C48007839
:101F700008B1002070BDFEF7D5F80A490C680CB115
:101F800062680A60FEF7D2F83CB1012020700020A0
:101F900020812046656000F0FDFD204670BD0000F8
:101FA000F2030020000400202DE9F04705460078E8
:101FB0008A461446012801D0012008E0294800780B
:101FC00008B1022003E02848007820B10D201070ED
:101FD0000020BDE8F087FEF7A5F86E6807460021EF
:101FE0003EB1884638466960FEF7A0F884F8008064
:101FF00036E0DFF878908846D9F8000010F8302FE6
:1020000042F002020270417040F804AC284600F031
:102010009DFD3846FEF78AF800F04CFEFEF782F888
:102020000746D9F8000090F8311031B1022908D0E4
:10203000294600F07BFD0A2004E0066A84F800804F
:1020400001E00E202070D9F80010384681F8308069
:1020500081F8318041F81C8FC1F80480FEF766F8E2
:102060003046B6E7F2030020F303002010040020FE
:1020700070B5044600780D46012801D0012070BDDE
:10208000FEF750F80646A07A58B1002302222946EE
:10209000204600F019FD3046FEF748F800F00AFE31
:1020A0000AE0606820B13046FEF740F8142070BDA9
:1020B00030466560FEF73AF8002070BD10B5094C57
:1020C000E07901280CD1FEF72DF8A17821B9E1784B
:1020D000FF2901D2491CE170BDE81040FEF726B887
:1020E00010BD0000F003002010B50D4CE079012870
:1020F00014D1FEF717F8E17831B1491E11F0FF0154
:10210000E17001D1A17819B1BDE81040FEF70EB819
:10211000FEF70CF8BDE8104000F0CCBD10BD00008B
:10212000F003002070B505460C48007808B1002087
:1021300070BDFDF7F7FF0A490C680CB162680A60D0
:10214000FDF7F4FF3CB10320207025810020606082
:10215000204600F01FFD204670BD0000F203002065
:10216000000400202DE9F047064600788946144611
:10217000032801D0012008E02548007808B102209A
:1021800003E02448007818B10D201070BDE8F087F6
:10219000FDF7C8FF07463089002530B1401E308169
:1021A0003846FDF7C3FF2570F0E7DFF86C80D8F8FC
:1021B000000010F8301F41F001010170457040F837
:1021C000049C304600F0C2FC3846FDF7AFFF00F03B
:1021D00071FDFDF7A7FF0746D8F8000090F8311011
:1021E00031B1022906D0314600F0A0FC0A2002E0FD
:1021F000257001E00E202070D8F8000080F83050E3
:1022000080F83150C5613846BDE8F047FDF78EBF14
:10221000F2030020F30300201004002070B50446F0
:102220000078032801D0012070BDFDF77BFF054633
:10223000A07A58B1002301221946204600F044FC40
:102240002846FDF773FF00F035FD09E020894FF6C1
:10225000FF71884206D2401C20812846FDF766FFA8
:10226000002070BD2846FDF761FF332070BD0000DF
:1022700010B5094CE07900280CD100F03FFD6079E1
:102280000649207151F82000A0622062BDE810408C
:10229000FDF74FBF10BD0000F0030020B019002073
:1022A000704700002DE9FE431C4615460F46804648
:1022B000FDF738FF1A49097821B1FDF737FF3C20B7
:1022C000BDE8FE83174E56F8241019B1FDF72EFF16
:1022D0002820F5E7012146F82410FDF727FF002309
:1022E0002A463946404600F01DF900250146009572
:1022F00001952B462A462046029500F00FFD070067
:1023000007D0FDF70FFF46F82450FDF70FFF3846C2
:10231000D6E7054800780128F9D100F0CBFCF6E7B4
:10232000F2030020B0190020F70300202DE9FF4F31
:1023300083B01C46DDE91386DDE9119792468B4692
:10234000FDF7F0FE1D49097829B1FDF7EFFE3C20AD
:1023500007B0BDE8F08F1A4D55F8241019B1FDF7FC
:10236000E5FE2820F4E7012145F82410FDF7DEFE04
:1023700032463946484600F09DFD3346524659469E
:10238000039800F0CFF80097CDE9018601464A4650
:102390002046109B00F0C2FC060008D0FDF7C2FEEC
:1023A000002145F82410FDF7C1FE3046D0E705486E
:1023B00000780128F9D100F07DFCF6E7F203002057
:1023C000B0190020F70300207047704770B505462C
:1023D00011480E461446007810B11220107070BDDE
:1023E000FDF7A0FE0146FF2D03D10C48006890F8D0
:1023F00032500B4850F82500432540B1012806D043
:10240000C6640846FDF792FE0020207070BD0846A5
:10241000FDF78CFE257070BDF20300201004002033
:10242000B019002010B50446FDF77CFE1B4951F899
:10243000241059B101290DD091F83020130729D566
:1024400012F0F70281F8302008D009E0FDF76EFEA7
:10245000462010BDFDF76AFE432010BDCA6A1AB1BE
:10246000FDF764FE002010BD0D4A91F83630147857
:102470002343137011F8343F0A4A4978D45C0C4363
:10248000D454FDF753FE084800780128EAD100F043
:1024900011FCE7E7FDF74AFE442010BDB01900200B
:1024A000F603002024040020F703002070470000FA
:1024B0002DE9F0410446002008600D464860FDF714
:1024C00031FE0146FF2C03D11448006890F83240D9
:1024D000134850F8240058B1012809D0027CD207D3
:1024E0000CD0D0E9027600240846FDF71FFE0BE071
:1024F0000846FDF71BFE4320BDE8F0810846FDF7C6
:1025000015FE4520F8E7641C01CF0028FBD0A00091
:102510002860301B800068600020EDE71004002078
:10252000B01900204FF080731360131F1860A2F1E0
:1025300008006FF001030360001F4FF012330360C7
:10254000001F4FF003330360001F4FF0023303609E
:10255000001F5B100360001F0160001F4FF011316E
:102560000160001F19010160001F4FF00931016077
:10257000001FD9000160001F4FF007310160001FEC
:102580004FF006310160001F4FF0053101609800E7
:1025900042F83C0D1046704770B50446FDF7C2FD89
:1025A00003461D48FF2C006805D090F83200A04279
:1025B00004D1012503E090F83240FAE700251748DE
:1025C00050F8240058B101280ED090F83420144C53
:1025D00090F83560A15CB143A1540AD00FE01846D1
:1025E000FDF7A4FD482070BD1846FDF79FFD432070
:1025F00070BD0C4990F836400A78A2430A7010F872
:10260000301F41F0080101701846FDF78FFD0DB134
:1026100000F050FB002070BD10040020B019002015
:1026200024040020F60300207047000070B5044623
:1026300013480078002821D11248007800281DD1C5
:10264000002C1BD0FDF76EFD03460F480F4D0168AF
:1026500091F8340091F835602A5CB2432A5405D1D0
:102660000B4891F836500278AA4302701846CC62A3
:10267000FDF75CFDBDE8704000F01CBB70BD0000C4
:10268000F2030020F30300201004002024040020A3
:10269000F60300202DE9F04100F04CF8FDF742FD73
:1026A000234D296B491C2963FDF740FDE87901287A
:1026B0003BD1687A0126002720B1012835D00228B5
:1026C00002D06F72EC6A2CE06E72FBE7FDF72AFD18
:1026D000E16A19B3491EE16220D194F8301011F07B
:1026E000370F06D001F0C80184F8301084F831604B
:1026F00001E084F8317094F8301009070ED494F892
:102700003610AA791143A971094994F8342034315B
:1027100094F835C08B5C43EA0C038B546469FDF775
:1027200005FD94F832003F28D0D1BDE8F0810000CB
:10273000F003002005480188491C89B20180142952
:1027400003D30021018000F043B87047EC03002060
:102750002DE9F05F81461A48DDF828B00C9E00781C
:102760001F4690468A4608B18B2025E0FFF7A6FC5D
:10277000144800250468E4B1E16801601249E5608D
:1027800025610888401C088010480188491E018086
:10279000012084F82500C4E9069A84F82480C4E95D
:1027A000017B0B982062FFF79FFC35702046BDE847
:1027B000F09FFFF799FC862030700020F7E70000BB
:1027C000F2030020440400203604002034040020DA
:1027D00001480068FFF722BD4004002070B505469F
:1027E00000780C46642801D0892003E01348007863
:1027F00010B18B2008701FE0FFF760FC95F82500F2
:10280000B0B1002601280AD0022808D0032803D03E
:10281000FFF76AFC8D200EE0284600F035F9002114
:10282000284600F0CFF8FFF75FFC2670012070BD4E
:10283000FFF75AFC87202070002070BDF2030020B3
:102840002DE9F0410546007816460F461C466428DF
:1028500001D0892003E01F48007810B18B20187048
:1028600036E0FFF72BFC95F8250068B3012826D049
:10287000022824D0032803D0FFF736FC8D2026E061
:10288000284600F001F9002020709FB18F20032F0F
:1028900003D0042F07D084200BE06A684AB1284691
:1028A000A968904706E06B681BB1314628469847F7
:1028B00000E02070FFF718FC0120BDE8F081FFF771
:1028C00013FC8E202070F7E7FFF70EFC87202070A6
:1028D0000020F2E7F203002030B587B04FF42071FA
:1028E000294800F0BDF94021284800F0B9F900203E
:1028F000254904466423421C00EB800001EBC00024
:1029000095B205EB8505037001EBC50580F8254000
:10291000C5601FA5056290B20F28ECD300EB8000C4
:1029200001EBC0001AA2037080F82540C460026267
:1029300018481A4A0460184804801020108018486B
:1029400001600120FFF7EEFB164908600020FFF749
:10295000E9FB1549154A0B230860802102910320E9
:10296000CDE903404FF6FD70CDE9000202F5FE729D
:1029700000210F48FFF7DAFC05AA0EA10B20FFF794
:1029800025FD07B030BD000028200020A82400202D
:102990003F000000380400203604002034040020EA
:1029A000440400203C04002040040020A822002011
:1029B000112A000875432F4F532D494920546D7239
:1029C00000000000032280F825200F4A0129126828
:1029D00014D0816991B111444161017D0B4A01F02C
:1029E000070102EBC10100230A68086042B1C2601E
:1029F00010618A88521C8A8003617047C169EAE7C6
:102A00000122C360F7E7000038040020A82400205A
:102A100008B5DFF86880DFF868901A4D6A46002133
:102A2000D8F80000FFF79EFBFFF748FB2868401C22
:102A3000286000F00700022759F8304013E0606971
:102A40002968E66888420DD1204600F01DF894F808
:102A5000240002280CD084F82570626812B1204648
:102A6000A16890473446002CE9D1FFF73DFBD5E73C
:102A700001212046FFF7A6FFEFE7000040040020F9
:102A8000A82400203804002010B5017D0D4A01F073
:102A9000070102EBC10200231468C168844203D11C
:102AA000116029B10B6103E00469E16001B10C61BF
:102AB000012180F82510C36003619088401E90803A
:102AC00010BD0000A8240020F0B50E460146847A0F
:102AD00013480027045D0D19ED7A405D00EBC4003A
:102AE000C5B2104850F82500C762066290F8306001
:102AF000964380F8306080F8313032070BD40A4AB0
:102B000090F83630967933439371343290F83560CB
:102B1000135D3343135500F009F82846F0BD00005B
:102B20006C5C0008B0190020F003002010B590F88C
:102B3000342090F835408B18DA7AA243DA7204D147
:102B40008A7A90F8360082438A7210BD30B51049F7
:102B500000F10B020B6A43F81C0F1C7E5B7EA55C28
:102B60001D43A5540A6A837A92F836402343837240
:102B700092F8340001F1340492F83550235CAB43F1
:102B8000235404D192F8362088799043887130BD5F
:102B9000F00300200022827211464318491CC9B27A
:102BA000DA720829F9D3704710B550210D4800F0AA
:102BB00057F800200B4A0346411C02EB00108CB270
:102BC00002EB04140370446007A4C46088B20428B4
:102BD000F2D302EB001004A103704360C16003480C
:102BE000026010BD481F00203F0000002C040020A0
:102BF00000B54FF49361164800F032F84FF480713D
:102C0000144800F02DF8124A0020411C0B46C9B2AE
:102C1000C0EBC00000EB4000C1EBC10102EB800043
:102C200001EB410102EB810141610BA1C164D8B20A
:102C30000D28EAD3C0EBC00000EB400002EB80009F
:102C400005A30021C364416104484262C16200BD22
:102C5000B01A0020B01900203F000000F00300204F
:102C6000002203E0491E00F8012B89B20029F9D1A6
:102C70007047000010B590210C48FFF7F1FF0B4A98
:102C80000020411C8BB200EB400003EB430302EB3E
:102C9000C30342F8303088B20528F2D300EB40007D
:102CA000002142F830100248026010BD981F002039
:102CB0003004002070B5FDF735FA0E4C0546A078BB
:102CC00098B9E07888B900F019F80B49607951F8A3
:102CD0002010A1622279904207D0886B401C886343
:102CE000E068401CE060FDF735FA2846BDE870401A
:102CF000FDF71CBAF0030020B01900200649054A70
:102D000001F134038879105C1B5CD25C02EBC000DB
:102D1000487170476C5C0008F00300202DE9F05FFB
:102D20009846DDE90ABA91460D460746FDF7FAF9DD
:102D3000324E746A002C5CD0616918347162FDF700
:102D4000F5F944F8185CA776002525766576656167
:102D500044F80CBC44E905A90C9824F8080C24F8A4
:102D6000068CE577FA08227707F00701012000FAC0
:102D700002F2E176A277884060776560E560A56041
:102D80002562A56265621EA0E562C4E90C500020C0
:102D9000B4F1180404EB8001401C0D6510F0FF0035
:102DA000F8D02046FFF77CFA2046FFF70DFBFDF731
:102DB000B9F90146134840F82740F06AC4E905050F
:102DC00000B18461F46294F83600B2791043B071B6
:102DD0000A4814F8342F34306478835C23438354D6
:102DE000307A401C30720846FDF7A0F90020BDE89B
:102DF000F09FFDF79BF94220F9E70000F003002067
:102E00003F000000B0190020054C00BFFDF78AF913
:102E1000E169491CE161FDF789F9FFF7D6FAF5E7A9
:102E2000F0030020144C02E02820FFF7FFFB60783D
:102E30000028F9D0642160690025B0FBF1F06061E1
:102E400018B92570FF20FFF7A7FBFDF76BF9E169C3
:102E5000C4E90615FDF76AF9D4E90510B0FBF1F0F5
:102E6000C0F164002070FFF721FB00F007F8142088
:102E7000FFF7DCFBE9E70000F00300207CB50C4D18
:102E8000002469462046FFF713FB58B955F8240083
:102E900040B1012806D0D0E9021201EB8201416461
:102EA00001998164641CE4B23F2CEAD97CBD000026
:102EB000B0190020D30707D0920705D500220029BA
:102EC00002D004C0491EFAE77047000010B50F4C4D
:102ED0002068007A022811D004280FD0032804D0DB
:102EE000052802D0072805D008E0FDF7BBFD2068C3
:102EF000007A04E006480068C0688047082021681E
:102F00000872BDE8104000F015B800003000002045
:102F100034000020064B521C520803EB410105D03F
:102F200031F8043B20F8023B521EF9D170470000F3
:102F3000006000400C4810B590F82C10002000F004
:102F400065FA0A480068007A082802D0092809D0E2
:102F500006E007494FF48050088006491020088099
:102F6000002010BD012010BDC00000203000002056
:102F70003E0000204000002010B5012000F02AFF94
:102F80000648012101600021054A0160031D196006
:102F90004FF4E05111800160002010BD405C004002
:102FA0003C000020044A0029516901D0014300E09F
:102FB000814351617047000000100240044A00291B
:102FC000D16901D0014300E08143D1617047000025
:102FD00000100240044A0029916901D0014300E039
:102FE00081439161704700000010024030B51F49D5
:102FF0004A6812F00C031E4A03D0042B01D0082BA0
:1030000021D002604A680F231A4C03EA1212A35C13
:103010000268DA4042604B68072505EA1323E35C47
:1030200022FA03F383604B6805EAD323E35CDA40BA
:10303000C2604968032303EA9131231F595CB2FB44
:10304000F1F1016130BD4A684B6802F470124FF033
:10305000020413F4803F04EB924202D04B689B03BE
:1030600001D5054B00E0024B5A43CAE7001002406D
:1030700000127A001800002000093D000149C1F843
:10308000D80070470000424270B51C4C072800D0A1
:103090002070217806260425194806292CD2DFE85D
:1030A00001F00306090E162000F02CF824E000F0D1
:1030B00029F80AE0022060700320207070BD60785B
:1030C000401E607060780028F8D1257070BD0168DE
:1030D00089B241F010010160052020700A20607063
:1030E00070BD6178491E617061780029F8D101686E
:1030F00089B221F010010160267070BD39010020F5
:10310000405C004010B5064C206880B220F00400FE
:103110002060FEF7B1FD4FF43F40206010BD00007D
:10312000405C004030B587B001210820FFF752FF16
:1031300001218803FFF742FF4FF46044ADF81440CB
:1031400018208DF817000320194D8DF8160005A9D9
:103150002846FDF7E7FE21462846FDF76AFF0020D6
:10316000ADF800004FF48271ADF80210ADF8040024
:103170000221ADF806100121ADF808104902ADF8A2
:103180000A103821ADF80C10ADF80E000720094CDC
:10319000ADF810006946204600F059F8012120469C
:1031A00000F040F8FF2000F007F807B030BD000045
:1031B000000C01400038004070B506460024114D57
:1031C00003E0641CE4B2C82C0FD80221284600F0AA
:1031D00033F80028F5D03146284600F036F80024B0
:1031E00005E0641CE4B2C82C01D9002070BD0121A7
:1031F000284600F021F80028F3D0284600F023F8F4
:10320000C0B270BD0038004001460548028822F077
:103210003802028002880A430280012100F002B8CD
:10322000003800400029018802D041F0400101E04F
:1032300021F04001018070470246002012890A42B5
:1032400000D001207047808970478181704730B578
:1032500002884C8802F441530A88CD8822438C8826
:103260002C4322430C8922434C8922438C892243DC
:10327000CC8922431A430280828B22F4006282832B
:10328000098A018230BD000010B5002306E000BFAE
:1032900030F8024B21F813405B1C9BB29342F7D3EA
:1032A00010BD00002DE9F05FA0F1006415468A46CC
:1032B0008346B4F5002F52D2FDF7A2FDE70AC4F30E
:1032C0004906C6F58064A54200D82C46DFF89490E4
:1032D0004FF0006000EBC72080464FF48062214928
:1032E000FFF7D2FF00204FF6FF7106E0331839F8E0
:1032F00013208A4203D1401C80B2A042F6D3A042E0
:1033000025D24046FDF728FD0020494607E000BFD2
:103310003AF810208319401C21F8132080B2A042F3
:10332000F6D3104940464FF4806200BF00F01CF80D
:10333000A54210D0281B0AEB440AA344002685B2FC
:103340004FF480647F1CA542C2D82C46C0E72246B9
:1033500051465846EAE7BDE8F05FFDF72FBDBDE8EE
:10336000F09F0000182500202DE9F04116460F4679
:103370000546002408E000BF37F814102846FDF782
:1033800025FD641CA4B2AD1CB442F5D3BDE8F081A8
:1033900070470000024920F00700086070470000F5
:1033A000505C0040F0B50E490E4D48F68F770B7813
:1033B000002148F2800C0BE0CEB205EB8604D4F875
:1033C000002C3A40324342EA0C02C4F8002C491C5B
:1033D0009942F1D3044940F080000860F0BD00003C
:1033E000A0000020005000404C5C0040054A21F045
:1033F0000101126892B202EBC000034A02EB4000E6
:1034000081607047505C0040006000400D4A1268C7
:103410003E2992B202EBC0000B4A02EB400209D9EE
:103420004809C90601D1401E80B24FF4004141EA6B
:10343000802004E04808C90700D0401C80021060CA
:1034400070470000505C00400C60004082000A4859
:103450000244D2F8000C4BF68F731840CB0401D510
:1034600080F48050890401D580F4005048F2800136
:103470000843C2F8000C7047005000408100074824
:103480000144D1F8000C4BF68F72104080F440508C
:1034900048F280021043C1F8000C70470050004011
:1034A000054A21F00101126892B202EBC000034A02
:1034B00042F8101070470000505C0040006000406F
:1034C000044A126892B202EBC000034A02EB4000C9
:1034D00041607047505C00400060004082000A4834
:1034E0000244D2F8000C48F6BF731840CB0601D551
:1034F00080F01000890601D580F0200048F280019C
:103500000843C2F8000C7047005000408100074893
:103510000144D1F8000C48F6BF72104080F0300032
:1035200048F280021043C1F8000C70470050004080
:10353000820005480244D2F8000C48F68F13184068
:103540000843C2F8000C7047005000400CB5002141
:10355000264801910091026842F4803202604FF4E3
:10356000A063026802F400320092019A521C019298
:10357000009A12B9019A9A42F3D10268920333D5A4
:10358000012100911A490A6842F010020A600A6893
:1035900022F003020A600A6842F002020A604168EF
:1035A000416041684160416841F480614160416827
:1035B00021F47C114160416841F4E81141600168E7
:1035C00041F08071016001688901FCD5416821F0FA
:1035D00003014160416841F0020141604168C1F36B
:1035E00081010229FAD10CBD00910CBD00100240EE
:1035F0000020024010B50020FFF740FD0121BDE88A
:103600001040C805FFF7DABC70B516480068174DC2
:103610000004C10B14480144098989B200EB41043C
:103620002868017A09290FD02178017061784170EA
:10363000A088FCF7BCFF296848802089FCF7B7FF09
:1036400029688880A089C880286801210172C08803
:1036500028B1FDF759FABDE87040FFF76BBCFEF7E3
:103660004BFBF8E7505C0040006000403000002059
:103670002DE9FC4F0446834601F1080080B215464F
:103680000090994658460A460C2B03D0B9F1180F02
:1036900002D003E0482100E090218A4602EB490372
:1036A00000F117015B1EFCF763FF05EBC5004FF04F
:1036B0000008019037E000BFB9F10C0F0ED0B9F14E
:1036C000180F32D11A49019801EB0011009E11F830
:1036D00008700025380606D50C9A07E015490198B0
:1036E00001EBC001F2E70B9820B90D9A3146204654
:1036F000FDF7A2FE7806761E070EB6B2072D0AD198
:10370000641CA4B2A4EB0B00182804D100985C46FA
:10371000083080B200906D1CEDB2082DDAD308F1AC
:10372000010000F0FF08D045C6DBBDE8FC8F0000BB
:10373000F83C0108D84401082DE9FF4F93B01C461E
:10374000DDF880B013460D468946600700D00120A1
:1037500000EBD401614301F0FF0A0C2C03D0102CC4
:1037600001D0182C30D1224669461846FDF7CAFC14
:10377000002627E01DF806704FF00008380602D535
:103780004FF6FF7203E0BBF1000F04D1002229467F
:103790001398FDF751FE78066D1C070EADB2A5EB30
:1037A0000900A04205D113984D46401C80B21390E9
:1037B00006E008F1010000F0FF08B8F1080FDDD3C2
:1037C000761CF6B25645D5D317B0BDE8F08F2DE97B
:1037D000F84F0D460AA9044691E8C00880463078A3
:1037E00000281ED0E81808EB020AA0EB070932787F
:1037F000802A18D9AAEB0700A04202DAE81985B29C
:103800004446A9450DDB3B46324629462046CDF8C5
:1038100000B0FFF791FFE01984B216F8020F0028FC
:10382000E5D1BDE8F88FAAEB5700A04202DAE8190B
:1038300085B24446A945F4DB0D2A0CD03B46294607
:103840002046CDF800B0FDF7BDFE04EB570084B272
:1038500016F8010FE3E7E81985B24446761CF4E751
:103860002DE9F04138480068017811F07F0102D05D
:10387000022905D066E0417A01F0DF0141724EE095
:10388000418800295ED10179F1BB4179304D21F0A9
:1038900080040A0605EB84022C4BD2F8002C03D5D9
:1038A000C2F30112120102E0C2F3013212031E78C8
:1038B0002346A64246D93AB3807A28B308064FEA8F
:1038C00084000ED52844D0F8000CC0F30110012864
:1038D00021D11846FCF732FF20463021FFF7FEFDCC
:1038E00019E04619D6F8000CC0F30130012812D1B6
:1038F0004BF68F7748F28008A4B11846FCF70AFF10
:10390000D6F8000C384000E01CE080F4405040EA5B
:103910000800C6F8000C0F48006840698047002086
:10392000BDE8F0810C4890F82C100020FFF76EFDE8
:10393000D5F8000C384080F4405040EA0800C5F843
:10394000000CE8E70220EBE730000020A000002098
:103950000050004038000020C000002010B5074C87
:1039600030B1074800680068804720680A3010BD01
:10397000216801200882002010BD000030000020D6
:1039800038000020054A13685A8A10B108681044AC
:1039900070478888801A1882002070473000002005
:1039A00010B5074C30B10748006880688047206830
:1039B0000C3010BD216801200882002010BD0000DD
:1039C0003000002038000020204910B5096860B19F
:1039D0001F48002202800A7853060AD002F07F02B4
:1039E000012A16D0022A16D001E002200882002007
:1039F00010BD497A8A06027802D542F0020201E03F
:103A000002F0FD0249060270D1B211D401F0FE01AC
:103A100010E00F4810BD4A79110713060D4A02EB5A
:103A20009161D1F8001C07D5C1F3011106E00178BE
:103A300041F00101017003E0C1F301310129F6D029
:103A40000548006800698047E3E700003000002077
:103A50002A00002000500040380000200A4810B51D
:103A600000680A4AC1785278914203D882780AB92C
:103A700082880AB1022010BD817205480068406842
:103A80008047002010BD000030000020A000002072
:103A900038000020064810B50068417A41F0200146
:103AA000417204480068C0698047002010BD0000D2
:103AB000300000203800002070B51D481D4D0368FF
:103AC000597921F0800005EB80000C06D0F8004CFD
:103AD00021F0800203D5C4F30114240102E0C4F3F1
:103AE00001342403144D2D78954210D95A8872B9A7
:103AF0006CB19A7A5AB10906D0F8001C48F28002DB
:103B000007D548F6BF73194081F0100106E0022086
:103B100070BD4BF68F73194081F480511143C0F88A
:103B2000001C0648006880698047002070BD0000C6
:103B30003000002000500040A0000020380000208D
:103B400010B50E4C0E4A20681268C178926940790F
:103B5000904721688A7A22B118B9087908B988781B
:103B600008B1022010BD07480068C068804720687F
:103B70004179C172C1780173002010BD300000206E
:103B800034000020380000200648016889B241F066
:103B900008010160016889B241F004010160FDF78C
:103BA000D9B80000405C00404FF0E02104280869CB
:103BB00003D020F004000861704740F00400FAE7E9
:103BC000064810B50078012807D1FEF793F9FEF7F3
:103BD00061FDBDE81040FEF799B910BDF703002064
:103BE0000F4810B5016841F00101016041680D4ABC
:103BF0001140416001680C4A11400160016821F4E4
:103C000080210160416821F4FE0141604FF41F01F1
:103C10008160FFF79BFC05494FF00060086010BD14
:103C2000001002400000FFF8FFFFF6FE08ED00E084
:103C300070B5FEF75FF9164C40F22551204600F0B2
:103C400037F8E0B1204600F0C1F8C2B2114801884F
:103C50000B0414D44C044FF0000304D50A2A0DD1F0
:103C600041F4004111E00D2A0DD0C1F30D040A4DBD
:103C7000491C89B22A550180C72900D90380BDE8B3
:103C80007040FEF743B941F480410180F7E700003E
:103C900000380140DA040020182D00200029818915
:103CA00002D041F4005101E021F4005181817047BC
:103CB00030B501F01F0201240025C1F3421304FABC
:103CC00002F2012B0FD0022B0FD0838A4FEA112171
:103CD0000088134204FA01F400EA040001D000B1A4
:103CE0000125284630BD8389F0E7038AEEE710B549
:103CF000C1F3421301F01F040121A140012B07D0A1
:103D0000022B07D01430002A026805D00A4304E0D1
:103D10000C30F8E71030F6E78A43026010BD00006F
:103D200030B50446008A85B00D464CF6FF71084058
:103D3000E98801432182A1894EF6F3100140A88849
:103D40002A8910436A890A431043A081A08A4FF64A
:103D5000FF410840A9890143A1826846FFF746F95F
:103D60001948844201D1039800E00298A18909040E
:103D700000EBC00101EB0010296801D5490000E00B
:103D80008900B0FBF1F06422B0FBF2F109010B09EC
:103D90006FF018056B4300EB8300A3891D044FF0FF
:103DA000320306D503EBC000B0FBF2F000F00700D1
:103DB00005E003EB0010B0FBF2F000F00F00084349
:103DC000208105B030BD0000003801408088C0F37C
:103DD00008007047044A00284FF40061104601D0E3
:103DE000FDF725B9FDF725B900180140104600225E
:103DF000402805D94020044B9B5C01F8013B521C34
:103E00008242F8D370470000FC04002006480549B0
:103E1000022201600A72064A0449C0E901120868D8
:103E200000470000E004002030000020C000002017
:103E30001001002008B514208DF8000001208DF835
:103E4000010000218DF802108DF803006846FDF78F
:103E500017FF08BD70B5294E3068294C6080608816
:103E6000284D29880840000401D5FCF7A5FB60888F
:103E700029880840400505D54FF6FF3030602248BC
:103E800040688047618828880140890402D54DF642
:103E9000FF71316061880140C80405D54EF6FF709E
:103EA00030600020FFF7F0F860882988084000059E
:103EB0000BD51648007810B1FFF766FE02E002202D
:103EC000FFF7E2F84FF2FF70306061882888014008
:103ED000890505D54FF6FF5131602178491C2170C5
:103EE00061880140C80507D54FF6FF603060BDE826
:103EF00070400720FFF7C8B870BD0000445C004068
:103F0000640000203C000020C00000203801002098
:103F1000FFF7A0BF05490020086005494FF43F4066
:103F200008800249091F086000207047445C004077
:103F30003C00002070B514460B460546012892B29D
:103F40000DD04FF4B071184600F00CF8A1B228461D
:103F5000FFF7B6FA2846FFF7D9FA204670BDD821F8
:103F6000F1E7FEE7094B10B5521C520803EB410183
:103F70000AD000BF10F8013B521E10F8014B43EA73
:103F8000042321F8043BF5D110BD0000006000407F
:103F900038B501212020FFF71DF84FF48054ADF80B
:103FA000004010208DF803000320104D8DF8020012
:103FB00069462846FCF7B6FF21462846FDF739F842
:103FC0000B490120C1F8B001FFF7ACF80020FFF762
:103FD0001BF9084C08A0218800F072F800F03CF8AA
:103FE0002080014604A000F06BF838BD00140140A9
:103FF00000802242D404002077323571363449449F
:104000003D25640A000000002DE9F041114E0746ED
:10401000002015460C46C6F8B0010320FFF7CCF887
:10402000C4F30740FFF7C8F8C4F30720FFF7C4F84C
:10403000E0B2FFF7C1F8002405E0FF20FFF7BCF86D
:104040003855641CA4B2AC42F7D30120C6F8B001C5
:10405000BDE8F0810080224270B50F4C0025C4F805
:10406000B051902004F5D874FFF7A6F80020FFF7B0
:10407000A3F80020FFF7A0F80020FFF79DF8FF202D
:10408000FFF79AF845EA0025FF20FFF795F8284347
:104090000121216070BD00000080224210B5074C54
:1040A0000020C4F8B001052004F5D874FFF784F8A7
:1040B000FF20FFF781F80121216010BD008022421E
:1040C0000FB4054B10B503A9044A029800F018F884
:1040D00010BC5DF814FB0000494B0008DC04002014
:1040E00002E008C8121F08C1002AFAD170477047C1
:1040F000002001E001C1121F002AFBD1704700001F
:104100002DE9FF4F8DB09B460F460446002606E082
:1041100025280BD05A460F999047641C761C2078AE
:104120000028F5D111B03046BDE8F08F0025A84633
:104130000122984900E0054314F8013F203B02FAB0
:1041400003F00842F7D120782E2817D114F8010F78
:1041500045F004052A280ED06FF02F022078A0F138
:10416000300109290AD808EB880102EB410100EB74
:104170000108641CF2E757F8048B641C20786C2853
:104180000DD004DC4C2812D06A2811D104E0742828
:104190000DD07A280CD10AE045F4001507E06178CB
:1041A00045F48015814202D1641C05F58015641C1C
:1041B0002278692A45D008DC002AB3D0582A69D071
:1041C000632A10D0642A08D13BE0702A67D0732A92
:1041D00013D0752A5CD0782A5CD010465A460F99C5
:1041E0009047761CD3E017F8040B8DF800000020F0
:1041F0008DF80100E946012003E057F8049B4FF0D9
:10420000FF3069074FF0000501D40AE06D1C4545F9
:104210000DDA8542FADB19F805100029F6D106E01F
:104220006D1C8542FCDB19F805100029F8D12E44DD
:1042300004E019F8010B5A460F9990476D1EF8D209
:10424000A5E00A200021CDE90801C5F302500228AB
:104250000DD001CFC117031E71F100030DDA4FF02D
:10426000000CD0EB0C006CEB01012D2308E0FF1DCE
:1042700027F00707F7E80201EDE72B0504D52B230C
:104280008DF8283001233BE0EB0739D02023F7E7F6
:104290000A2000E010200021CDE9080107E01020ED
:1042A000002145F00405CDE908014FF00808C5F3E9
:1042B000025002280FD001CF00214FF0000A2B0737
:1042C0001FD5702A0DD0DDE908C38CF0100C5CEA14
:1042D000030C0CD015E0FF1D27F00707F7E80201DB
:1042E000EBE740228DF828204FF0010A0BE050EA5E
:1042F000010306D030238DF828308DF829200223C1
:104300009A46582A04D024A20DF120090B9209E004
:1043100026A2F9E7DDE90823FCF702F80B9B9B5C7A
:1043200009F8013D50EA0102F4D1ADEB090020305B
:104330000890680701D44FF001080899884502DD0C
:10434000A8EB010000E000208046002506E00AA856
:104350005A46405D0F9990476D1C761C5545F6DB1B
:1043600004E030205A460F999047761CB8F10001BE
:10437000A8F10108F5DC05E019F8010B5A460F9980
:104380009047761C0899481E08900029F4DC641CAC
:10439000C5E60000092801003031323334353637A4
:1043A0003839616263646566000000003031323381
:1043B0003435363738394142434445460000000021
:1043C00064261C4C052500BFFCF736FE616A401AC6
:1043D000FBF784FF2169FBF711FFFBF788FF90FBD8
:1043E000F6F0A16A401AC11C062900D800206169B4
:1043F000411A091D092902D36061012000E0002053
:10440000A0706069002805DB801C90FBF5F000EBD4
:10441000800006E0C0F1020090FBF5F000EB8000A8
:1044200040420146E062A06BFDF722FE642000F0EE
:1044300033FBC9E73C0100204FF0000A88B0544626
:104440008DF818A0564657465546D046FEA04FF464
:10445000FA73D0E90010CDF800A0CDE904100121D5
:104460004FF4A0720846FDF7EBF90DF10C0BF8A123
:104470000094CDE9011BF84B01220A214FF416707C
:10448000FEF766F9DFF8D49303A9C9F83C00FEF7FC
:10449000A5F9F3A0CDE90040F34B01220A21CDF8A4
:1044A00008B04FF42F70FEF753F903A9C9F8400084
:1044B000FEF794F9642000F0EFFAECA0FFF700FE9D
:1044C000CB4603AA00215C46DBF83800FDF76CFD03
:1044D000E16A46F2A810814220DD032E02D2761C4A
:1044E000F6B2EEE7012154464FF4FA734FF4A0728E
:1044F0000846CDF800A0FDF7A3F91820E0A1CDE90A
:1045000000104B23C822029432216420FFF75FF988
:10451000E5494FF00108C1F88881D2E70026B8F1DB
:10452000010F0DD1E049B046C1F888A101214FF437
:10453000FA734FF4A0720846CDF800A0FDF780F999
:104540002078012808D1A078012805D1C4F818A046
:1045500084F801A084F800A0A346A06A00F0AAFD98
:10456000E06A00280BDBDBF8182050434FF47A7226
:1045700000F5FA70B0FBF2F0CBF81C0001E0CBF8CC
:104580001CA0DFF8289300204FEA0A0409F8004035
:10459000401CC0B24028F9D3C5A0FFF791FD89F8AF
:1045A0000040012189F8011089F8024089F8034090
:1045B000082189F80410042189F80510DBF82C1073
:1045C00089F806100A0A89F807200A0C484689F873
:1045D0000820090E417289F80A404022B34901209F
:1045E000FFF7A8FC9BF8090001287DD18BF8094052
:1045F000B3A0FFF765FD002148464454491CC9B2E9
:104600004029FAD30470022141708470C4700821DB
:10461000017104214171A54A9BF80830903252F88B
:10462000232082714FEA122C80F807C04FEA124C07
:1046300080F808C0120E42720F228272C1729BF87B
:104640000720C2EB021CA24A02EB4C0212F81ECC5D
:1046500080F80CC012F81DCC80F80DC012F81CCCEC
:1046600080F80EC012F81B2CC2730D2202748F4A00
:104670004174683252F8232082744FEA122C80F879
:1046800013C04FEA124C80F814C0120E42750E226D
:104690008275864AC175403252F8232002764FEA6D
:1046A000122C80F819C04FEA124C80F81AC0120E72
:1046B000C276102202774177DBF8201081770A0A50
:1046C000C2770A0C80F82020090E80F821100A21F8
:1046D00080F82210012180F8231080F8243089F816
:1046E00025404022714900E005E00120FFF722FC4F
:1046F00078A0FFF7E5FC9BF80A0001281AD18BF897
:104700000A40002049460C54401CC0B24028FAD34D
:104710000C70042048708C70CC7089F804400A201A
:1047200000F0BAF9402261490120FFF703FC6CA0B8
:10473000FFF7C6FC9BF80B00012829D18BF80B4032
:104740005A468BF80040002049460C54401CC0B229
:104750004028FAD30C70032048708C70CC700A206B
:104760000871012048719BF80800887189F807409A
:104770000A2000F091F940224C490120FFF7DAFBB2
:104780009BF80800401E8BF8080059A0FFF798FC22
:104790009BF80C0001281AD18BF80C4000204946E8
:1047A0000C54401CC0B24028FAD30C70082048704A
:1047B0008C70CC7089F804400A2000F06DF940221A
:1047C0003A490120FFF7B6FB4DA0FFF779FC9BF8B3
:1047D0000200D94658B9D9F82C00002807DD0C236F
:1047E000872282210A200094FCF74AFF06E01E235C
:1047F0001A460A2178200094FDF722F899F8030060
:10480000012803D099F8061001297DD17F1C0128C9
:104810000AD112490520F431CDE9000119234922BA
:1048200032216420FCF7B1FF99F8060001280AD173
:104830000A480521F930CDE9001019234922322117
:104840006420FCF7A2FF60E00B0B0B0B0D0A0D0DB3
:10485000746D723100000000A95500083C01002071
:10486000746D723200000000DD550008636F6E74D5
:10487000726C207461736B2066696E6973680A00DC
:10488000D6D8C1BFB3ACB3F6C1BFB3CCA3ACC7EBF2
:10489000B7C5D6C3D0A1D3DA3235C7A7BFCBB5C40D
:1048A000CEEFC6B7A3A1000000002242300A0020CC
:1048B00073656E6420666C616720310A0000000039
:1048C00073656E6420666C616720320A0000000028
:1048D000FC05002061646420676F6F6473200A0028
:1048E000636C65617220676F6F64730A000000007B
:1048F00072656D6F766520676F6F64730A000000E4
:10490000636F64650A00000010E0032F0ED989F878
:1049100003404A4889F806400521CDE900100027E8
:104920001923492232216420FCF72FFF06A9D9F868
:104930002C0001F007F9D9F8180000F039FCD9F87B
:10494000200000F0B3FD99F80000009401282DD05C
:104950001E231A460A21D720FCF772FF182038A11F
:10496000CDE9001019237822029450216420FEF72B
:104970002EFF04A90820CDE900011923AA22E12174
:10498000E820FCF72FFF0C237D22052196200094C0
:10499000FCF776FE0C237E22052132200094FCF7E2
:1049A0006FFE99F801006D1C58B122E00C237F22A4
:1049B000E1210A20FCF764FED9F81C0000F020FE7B
:1049C000E1E7032D03D84FF6FF70009000E000945C
:1049D000B3234FF4C472AF2140F27910FCF748FDC5
:1049E000B3234FF4D072AF2140F291100094FCF742
:1049F0003FFD99F8010001281BD1032D4FF0B303AF
:104A00004FF4C4724FF0AF0140F27910009405D812
:104A1000FCF72EFD4FF6FF70009002E0FCF728FD3A
:104A20000094B3234FF4D072AF2140F29110FCF701
:104A30001FFD062D7FF455AD002542E53A0200200A
:104A400020202020202020202020000010B56FF002
:104A50000400FFF7A9F80D480D4A01680D48B1FBA5
:104A6000F2F3B1FBF2F141F28832514303700522B7
:104A700042804FF0E020026942F00202026141618F
:104A8000016941F00101016110BD0000000000203A
:104A900000127A00D604002070B504460C48007855
:104AA00078B10C48007860B90B4D6888844203D314
:104AB000B4FBF0F0FDF7BAFD6888B4FBF0F100FB41
:104AC00011444FF47A706043BDE8704000F006B8BE
:104AD000F7030020F2030020D60400202DE9F04166
:104AE0004FF0E026002477690C49097800FB01F5B6
:104AF000FDF7E4FAB069B1698142FCD002D2A0EBC3
:104B0000010002E0A7EB0102104404440846AC4255
:104B1000F1D3BDE8F041FDF7E7BA0000D60400206C
:104B200010B5FFF735FA212205490648FFF76CFA60
:104B300004480078AA2801D0012010BD002010BD33
:104B400000604E00F624002004490A885206FCD575
:104B5000024AC1B2121D11807047000000380140A6
:104B6000034604200A5C4AB19A4206D00A18801C07
:104B700052781044402801D0F4D370474FF0000021
:104B800070470000F0B585B0064600251421684640
:104B9000FBF729FB47484FF00102A0F5907450F84D
:104BA000261023786778A069B1F1FF3F4FF00A0C17
:104BB00014D0002B0CD137B1B0FBFCF20CFB12026D
:104BC000801A084408E042F21073984202D3E2705F
:104BD00005B0F0BD084456E0A061F9E73649D1F8C8
:104BE00028E00021142E20D007DC012E10D00A2E40
:104BF00010D00B2EECD16270EAE7222E37D02B2E8C
:104C00003CD02C2EE4D188B3012B47D0A1614FE0DA
:104C10002273DDE7606941F2833270449042D7DC51
:104C2000A0620528D4DAA162D2E7BEF1000FCFDC82
:104C3000E06AB0F5FA7FCBDC0028C9D04FEA0D0658
:104C4000FCF7FAF946F825006D1CEDB2052DF7D3F7
:104C5000DDE900010844DDE9021211440844049929
:104C60000844052190FBF1F06062B1E716E0217283
:104C70002162A16121706170A272A9E7012F06D0A3
:104C80006421B0FBF1F000EB80004000A4E7B0FB32
:104C9000FCF000EB80004000A06109E0207A38B110
:104CA000E272064AA16152F82000226A101A2062BC
:104CB00061708DE75C0200203C010020700A00203A
:104CC0002DE9FE43394E0546002456F82500401CC8
:104CD0003AD04FF0180936A2CDE90029A04660234A
:104CE000CDF80880782250216420FEF770FD56F838
:104CF00025503248C5EB051100EB4101012211F8A6
:104D00001E3CA6F5F470FF2B01D06BB115E011F835
:104D10001D3CFF2B11D111F81C3CFF2B0DD111F8BC
:104D20001B3CFF2B0FD008E011F81D3C2BB911F8EC
:104D30001C3C13B911F81B3C2BB1037A092B33D25D
:104D400006781EB119E04271BDE8FE835B1C02705B
:104D5000DBB21B4F0372DFF868C0C66947F82360F7
:104D60000CF1280C87694CF823700CF1280CC76AE9
:104D70004CF82370036A33440362C57142721048D1
:104D80005A380A1912F81A2C0255641CE4B21A2C6B
:104D9000F7D3CDE90009192378225021CDF80880F6
:104DA0006420FEF714FDCFE78271CDE724030020D5
:104DB000202020202020202020200000FC05002092
:104DC000700A00208CB00025142107A8FBF70BFA0D
:104DD0001C216846FBF707FA4FF0010B6C4F0024CB
:104DE000A7F1280A0AEBC4095AF83400B9F80410EC
:104DF000FCF71DF90520FFF74FFE002607EBC6085C
:104E000057F83600B8F80410FCF70AF9E8B307A819
:104E10000BFA06F150F824208A4340F82420761C2F
:104E2000F6B2052EEAD3B9F804105AF83400FCF7AC
:104E300000F9641CE4B2052CD4D3554F002460372C
:104E4000A7F1380A0AEBC4095AF83400B9F804107B
:104E5000FCF7EDF80520FFF71FFE002607EBC6085C
:104E600057F83600B8F80410FCF7DAF8F0B35DF83C
:104E700024200BFA06F18A434DF82420761CF6B262
:104E8000052EEBD3B9F8041000E010E05AF8340016
:104E9000FCF7CFF8641CE4B2072CD3D31420FFF73F
:104EA000FBFD3B486C38017901294CD056E00220CB
:104EB000FFF7F2FDB8F8041057F83600FCF7B0F829
:104EC0000028ACD107AB04EB840053F8243006EB88
:104ED00040000BFA06F85A46C0B213EA080F04D194
:104EE0002B496C390A71FFF74DFE00E007E007A877
:104EF00050F8241041EA080140F824108FE70220FE
:104F0000FFF7CAFDB8F8041057F83600FCF788F828
:104F10000028B3D106EB86005DF8243004EB400096
:104F20000BFA06F8C0B25A4613EA080F04D1184922
:104F30006C390A71FFF7C4FE5DF8241041EA0801DC
:104F40004DF824109AE7134A6D1CEDB2C2F888B1EF
:104F5000012D03D900250571C2F888514179012935
:104F60007FF43CAF0B496D1CEDB25A46C1F888B1D5
:104F7000012D09D0022D04D0032DF1D100252A46A0
:104F80004571C1F8882129E70020C1F8880125E78B
:104F9000A80100200000224210B503A0FFF790F8FE
:104FA000BDE81040FCF7A6BA6C636420696E6974B2
:104FB0000A00000008B501210846FEF70BF80121A0
:104FC0002B48FCF701F84FF4A060FCF78BFEFFF7CD
:104FD0003DFD4FF4E13000F085FBFFF7DDFFFCF70E
:104FE00045FCFBF793FA23490020C1F8BC01FBF70D
:104FF000A9FA21A0FFF764F86420FFF74DFDFFF741
:105000008FFDFCF755F9FCF791F9FEF713FFFEF75A
:10501000F1FAFEF7FBFEFBF74BFA00F0B1F8FFF7F1
:105020003DF86420FFF738FD1B4800909823AC2220
:10503000A4214A20FCF742FA6420FFF72DFD00F07E
:1050400005FD3220FFF728FDFCF724F900F018F9E0
:10505000FCF7BCFE0A23114A00211148FDF722F992
:10506000FDF706F90FA0FFF72BF8002008BD0000A0
:10507000000430000000214268646D69206175649D
:10508000696F206D6F746F2020696E697420666986
:105090006E6973680A0000006C5D0008E40C002073
:1050A000255400086D61696E2066696E6973680A2F
:1050B0000000000030B587B000242FA103940494B1
:1050C000059409682D4D0691002848DD0521801CB6
:1050D00090FBF1F02D218DF80C1000EB80004FF4C7
:1050E0007A7190FBF1F230328DF80D202E228DF87E
:1050F0000E2090FBF1F201FB1202642192FBF1F20F
:1051000030328DF80F2090FBF1F201FB12020A21E0
:1051100092FBF1F230328DF8102090FBF1F201FB9E
:10512000120030308DF8110006A90220CDE90001EF
:105130008DF812401923AA220F216420FCF7F8FAF7
:10514000182003A9CDE900101923C82202940F21C9
:10515000A020FEF73CFB0120287007B030BD287866
:10516000012806D18C23232264210F200094FCF710
:1051700067FB2C70F1E700009C9D000048040020B4
:1051800070B5094D094E0024C4EB0410C4EB0411A2
:1051900005EB41010F2206EB4000FEF775F8641C99
:1051A000232CF1D370BD0000FC050020000007088F
:1051B000F0B587B000250446059518262FA0069562
:1051C000CDE900064FF4D77703950495192364229F
:1051D000962102953846FEF7FAFA28A0CDE9000696
:1051E00019236422FA2102953846FEF7F0FA42F2BA
:1051F0001070B4FBF0F111F0FF028DF80C204FF0AD
:105200000B0101D18DF80C10B4FBF0F200FB124041
:105210004FF47A72B0FBF2F0C0B28DF80D009DF839
:105220000C300B2B02D108B98DF80D10B4FBF2F045
:1052300002FB10406421B0FBF1F0B4FBF1F28DF8F9
:105240000E0001FB12410A20B1FBF0F18DF81010A5
:10525000B4FBF0F18DF80F0000FB11408DF8110048
:1052600003A90620CDE900011923AA227D214FF4CC
:105270008C70FCF7B7FA07B0F0BD0000D4AA0000AC
:105280002DE9FE434D4CA1882068FBF7D0FEA18C90
:10529000206AFBF7CCFE0120FFF7FEFB2834A18833
:1052A0002068FBF7BDFE00287ED10220FFF7F4FB4B
:1052B000A1882068FBF7B4FE00287BD1A18C206A6E
:1052C000FBF7AEFE002875D10220FFF7E5FBA18CAD
:1052D000206AFBF7A5FE00286CD1002501214FF4C0
:1052E000FA734FF4A07208460095FCF7A9FA344F00
:1052F0001826A1882068FBF793FE0028F9D0DFF874
:10530000C48031A0CDE900063223C8221946029597
:105310006420FEF75CFAFBF78FFE3968401A4045BF
:105320004ADDFAF7DBFF01462E48FAF799FFDFF86E
:10533000B890C9F800001420FFF7AEFBFBF77CFE25
:105340003968401AFAF7CAFFD9F80010FAF756FF81
:10535000FAF7CDFF25490844B0F5F97F0FD824A00E
:10536000CDE900063223C822962102956420FEF77B
:105370002EFA494602222248FDF794FF09E021A0B7
:10538000CDE900063223C822962102956420FEF75B
:105390001EFAA1882068FBF743FE0028B1D1022045
:1053A000FFF77AFBA18800E004E02068FBF738FEF5
:1053B0000028A6D1BDE8FE8316A0E1E74C0400203A
:1053C0006001002040420F00C7EBB7C5D6C33130A3
:1053D0004B67EDC0C2EBBDF8D0D0D0A3D7BCCFB5E2
:1053E000CAFD0000002474494C010020B9BEF0FF42
:1053F000D0A3D7BCB3C9B9A620202020000000004C
:1054000000000508D5FDD4DAD6D8D0C2D0A3D7BCC9
:1054100000000000EDC0C2EBD6D8C1BFB2BBD7E3DD
:105420000000000010B50020FCF79EFD164C206324
:105430000020FCF799FD60630020FCF795FDA06358
:10544000FAF770FE04460523104A00211048FCF7C5
:1054500029FF03230F4A00210F48FCF723FF0423F1
:105460000E4A00210E48FCF71DFF06230D4A0021BD
:105470000D48FCF717FF0A20FDF78EF82046BDE81F
:105480001040FAF753BE00003C010020E40E00205B
:1054900039440008E4100020155A0008E4120020E6
:1054A000C54D0008E4140020C143000830B587B0A2
:1054B00000210291039104910591384902AA0B78C9
:1054C0000B2143B1364BB0FBF3F414F0FF048DF81D
:1054D000084007D008E000201154401CC0B2082842
:1054E000FAD350E08DF80810B0FBF3F403FB14037B
:1054F0002C4CB3FBF4F3DBB28DF809309DF8085067
:105500000B2D02D10BB98DF80910B0FBF4F304FB9D
:10551000130342F21074B3FBF4F3DBB28DF80A30DC
:105520009DF809500B2D02D10BB98DF80A10B0FB74
:10553000F4F304FB13034FF47A74B3FBF4F3DBB21C
:105540008DF80B309DF80A500B2D02D10BB98DF858
:105550000B10B0FBF4F104FB11016423B1FBF3F178
:10556000B0FBF3F48DF80C100A2103FB1403B3FB1A
:10557000F1F38DF80D108DF80E30B0FBF1F301FB57
:1055800013008DF80F000820CDE900021923AA228C
:10559000E1212820FCF726F907B030BD44010020A6
:1055A00040420F00A086010008B5FBF70DFE084938
:1055B0000020C1F8800107490120C1F8BC0106485C
:1055C00000226B461146C06BFDF73AF908BD00009A
:1055D00000002342000021423C010020064908B59A
:1055E0000120C1F8BC01054800226B461146006C41
:1055F000FDF726F908BD0000000021423C01002013
:1056000010B586B00021354A0291039104910591AD
:10561000B0FBF2F111F0FF038DF808304FF00B01F1
:1056200001D18DF80810B0FBF2F302FB13032C4AF2
:10563000B3FBF2F3DBB28DF809309DF808400B2C78
:1056400002D10BB98DF80910B0FBF2F302FB130283
:1056500042F21073B2FBF3F2D2B28DF80A209DF839
:1056600009400B2C02D10AB98DF80A10B0FBF3F2F5
:1056700003FB12024FF47A73B2FBF3F2D2B28DF84D
:105680000B209DF80A400B2C02D10AB98DF80B10A3
:10569000B0FBF3F103FB11016422B1FBF2F1B0FBAB
:1056A000F2F38DF80C1002FB13020A21B2FBF1F2A7
:1056B0008DF80D108DF80E20B0FBF1F201FB1200F9
:1056C0008DF80F0002A90820CDE900011923AA22B4
:1056D000E121E820FCF786F806B010BD40420F003B
:1056E000A086010070B5054686B0012144F2040091
:1056F000FDF770FC4FF40070ADF8100003248DF836
:10570000124018201D4E8DF8130004A93046FBF7F7
:1057100009FC3015ADF8100004208DF8130004A921
:105720003046FBF7FFFB25208DF814008DF815405F
:105730008DF8164001208DF8170005A8FCF7A0FA97
:105740000020ADF80400ADF80600ADF80800ADF893
:105750000C000C200A4CADF80A0000956946204662
:10576000FEF7DEFA012240F225512046FEF7BFFA8D
:1057700001212046FEF792FA06B070BD00080140F4
:1057800000380140F0B589B0044620216846FAF798
:105790002AFD2078002838D16078002835D1A078FB
:1057A000012832D1E07800282FD12AA0FEF788FC0A
:1057B00021461120FFF7D4F9002826D02044417952
:1057C00086780A02017911430A02C178114356EA28
:1057D000012619D0232E17D821460F20FFF7C0F934
:1057E000010011D000206D460A18224492782A54F4
:1057F000401C0428F8D321461220FFF7B1F901001C
:1058000002D00020621808E0002009B0F0BD0B189B
:1058100023442F189B783B71401C53788342F6D861
:10582000104AC6EB0611002002EB41022B5C141853
:10583000401C04F81E3C1E28F8D30B480F2200EB36
:1058400041006946FDF72EFD3220FFF725F90120C2
:10585000DBE7000075706461746520626567696EDE
:105860000A000000FC050020E2FF06082DE9F047D1
:1058700098B040216846FAF7B6FC0026202110A80F
:10588000FAF7B1FC544C694601202268FEF7AEFAE3
:10589000206800287ED00A20FFF7FEF89DF800005F
:1058A000002877D19DF80100002873D19DF80200EF
:1058B000DFF828910024012514274FF0050802285D
:1058C00034D19DF80300002864D189F80D5044A01C
:1058D000FEF7F6FB0520FCF75FFEDFF814A100BF22
:1058E000C6EB06110AEB41000F2210A9FDF7DAFC06
:1058F000761C232EF4D38DF800408DF801808DF8AE
:1059000004708DF802408DF805508DF803408DF835
:105910000650402269460120FEF70CFB9DF800006E
:10592000002855D19DF80100002851D19DF80200B2
:10593000032827D19DF80300002849D189F80D409C
:105940002CA0FEF7BDFB8DF8004006208DF801006D
:105950008DF804708DF802408DF805508DF80340E5
:105960008DF80650402269460120FEF7E3FA052033
:10597000FCF758FD9DF80000002829D19DF8010092
:10598000002825D19DF80200012821D19DF80300AF
:10599000002800E01CE01BD119A0FEF791FB68462F
:1059A000FFF7F0FE8DF800408DF801808DF804704F
:1059B0008DF802408DF805508DF803408DF80650A3
:1059C00008B98DF80740402269460120FEF7B2FA77
:1059D00018B0BDE8F08700005C0000203C0100200A
:1059E000626567696E207369676E616C0A0000000A
:1059F00000000708656E64207369676E616C0A00B9
:105A000070616E206475616E207375636365737376
:105A1000200A000008B5084D084C09A0FEF750FB0D
:105A20006A460021686BFCF7BFFA20680028F4D0B2
:105A3000FFF71CFFF1E700003C0100205C000020A4
:105A4000757362207461736B0A0000002DE9F047E2
:105A500088B00024142103A8FAF7C5FBDFF8C8902A
:105A6000072509F107074FF48278FE1D0DF10C0A96
:105A7000CDE900591923AA224146A420FBF758FE7C
:105A80006420FFF709F8CDE900571923AA224146FF
:105A9000A420FBF74DFE6420FEF7FEFFCDE9005683
:105AA0001923AA224146A420FBF742FE6420FEF7F8
:105AB000F3FFFBF7C1FA4AF82400641CE4B2D446B1
:105AC000052CD5D303995FF000030A465CF8230048
:105AD000884200DD0146904200DA02465B1CDBB2E0
