:020000040800F2
:10000000E031002001010008211C0008A1110008B6
:100010001F1C0008AD050008073F00080000000095
:100020000000000000000000000000003533000860
:10003000A50C00080000000073010008653B0008E3
:100040001B0100081B0100081B0100081B01000820
:100050001B0100081B0100081B0100081B01000810
:100060001B0100081B0100081B0100081B01000800
:100070001B0100081B0100081B0100081B010008F0
:100080001B0100081B0100081B0100081B010008E0
:10009000B53E00081B0100081B0100081B010008F9
:1000A0001B0100081B0100081B0100081B010008C0
:1000B0001B0100081B010008000000001B010008D4
:1000C0001B01000800000000000000001B010008E8
:1000D00000000000D53B00081B01000800000000E4
:1000E0001B0100081B0100081B010008DFF80CD0F1
:1000F00000F07EF900480047ED4E0008E031002096
:100100000648804706480047FEE7FEE7FEE7FEE7B1
:10011000FEE7FEE7FEE7FEE7FEE7FEE7853B0008B9
:10012000ED000008EFF3108072B6704780F310887E
:100130007047204C204D25604FF0000484F309885F
:100140001E4C4FF0010525701D4C4FF08055256069
:1001500062B6FEE730B41A4C4FF08055256030BCD3
:10016000704730B4164C4FF08055256030BC704756
:1001700000BF72B6EFF3098028B1203880E8F00F95
:1001800010490968086000B50F4880475DF804EB26
:100190000E480F490A7802700A480E490A68026040
:1001A000106890E8F00F203080F309884EF0040EBC
:1001B00062B6704720ED00E00000FFFFF70300206B
:1001C00004ED00E010040020CD250008F403002019
:1001D000F503002018040020D2B201E000F8012B42
:1001E000491EFBD270470022F6E710B513460A46B7
:1001F00004461946FFF7F0FF204610BD80EA0102D1
:1002000010B502F00043400022D04A001FD0010E7A
:1002100001EB1261C0F35600C2F3560240F4000035
:1002200042F40002A0FB022000047F39140400D035
:10023000401C50EA124001D44000491EC2B20C06D4
:1002400004EBD010401C4008802A02D003E00020BC
:1002500010BD20F00100002900DA0020184310BD75
:1002600030B480EA010202F0004530F0004221F093
:10027000004013D090B1C30DD40DC2F31601C0F3EA
:100280001600E41A41F4000140F400027D3491426A
:1002900001D3641C00E04900002C02DA30BC0020CD
:1002A00070474FF400000023914201D3891A0343A1
:1002B00040084FEA4101F7D151B1914202D14FF0CC
:1002C000004105E002D24FF0010101E06FF00101B1
:1002D00003EBC450284430BC00F053B8C10F80EA8F
:1002E000E0700844CA079623002100F053B800F0DC
:1002F000004220F00040C10DC0F3160040F40000A1
:100300007F2901DA00207047962903DCC1F19601AC
:10031000C84001E096398840002AF4D04042704736
:100320002DE9F05F0546002092469B46884606462A
:10033000814640241BE0284641464746224600F0BD
:1003400078F853465A46C01A914110D311461846C0
:10035000224600F05FF82D1A67EB01084F4622464F
:100360000120002100F056F817EB00094E41201E35
:10037000A4F10104DFDC484631462A464346BDE885
:10038000F09F0029A8BF7047401C490008BF20F01B
:100390000100704710B4B0FA80FC00FA0CF050EA8B
:1003A000010404BF10BC704749B1CCF1200421FA0C
:1003B00004F411FA0CF118BF012121430843A3EB07
:1003C0000C01CB1D4FEA00614FEA102042BF002014
:1003D00010BC704700EBC35010440029A4BF10BCF0
:1003E0007047401C490008BF20F0010010BC704756
:1003F000064C074D06E0E06840F0010394E8070072
:1004000098471034AC42F6D3FFF774FEA088010879
:10041000C0880108202A04DB203A00FA02F10020FB
:1004200070479140C2F1200320FA03F31943904032
:100430007047202A04DB203A21FA02F0002170479D
:1004400021FA02F3D040C2F120029140084319463C
:10045000704770B58D1810F8014B14F0030201D1EC
:1004600010F8012B231106D110F8013B03E010F81E
:10047000016B01F8016B521EF9D1ABB110F8012BE1
:1004800004F00C048A1A0C2C03D0A2EB84129B1CDF
:1004900008E010F8014BA2EB0422F8E712F8014B38
:1004A00001F8014B5B1EF9D5A942D4D3002070BDE1
:1004B00038B50121102002F05FFD0120ADF80000E9
:1004C00003248DF8024010200B4D8DF8030069467F
:1004D000284600F027FD0220ADF800008DF802400C
:1004E00004208DF803006946284600F01BFD03A098
:1004F00003F0B8FD38BD00000010014061646320C6
:10050000696E697420656E640A00000008B50121F7
:10051000042002F031FD4FF40040ADF8000003204C
:100520008DF8020010208DF803006946034800F0A2
:10053000F9FC03490020C1F8BC0108BD00080140D6
:100540000000214208B50121102002F015FD042011
:10055000ADF8000003208DF8020010208DF8030094
:100560006946024800F0DEFC08BD000000100140B2
:1005700070B54FF0C0452A242C800B4C060A26800B
:10058000C0B22080080A2080C8B220802B2028809A
:10059000100A2080D0B22080180A2080D8B2208093
:1005A0002C20288070BD000000000260FEE7C1B270
:1005B000000A40EA012070472DE9F84F0020ADF80D
:1005C0000000DFF834A14BF6BF7648F280074A4DB1
:1005D0004A4C40F68F7848F60F7BDFF824910AF1F9
:1005E000440A31E00888474A10F00F00107034D0F8
:1005F000454901EB8001D1F8002CADF80020BDF891
:10060000002012040BD5D1F8002C02EA0802C1F830
:10061000002C3E4901EB800050F8040C8047BDF8E7
:100620000000000610D537483749007801EB8001FB
:10063000D1F8002C02EA0B02C1F8002C344901EB7E
:10064000800050F8040C8047DAF800004946A9F809
:1006500000000004C6D4BDE8F88F286820802088F8
:1006600000F030006080208800F44050208028682E
:10067000304080F4005080F0200038432860088823
:10068000C006286815D400EA0B00286000F08AFD37
:1006900026E02188890401D580F400506188C906CC
:1006A00026D46188890601D580F02000384328606F
:1006B000D1E7ADF80000BDF80000000506D52868B8
:1006C00000EA0800286002F071FF09E0BDF80000B0
:1006D0000004B9D5286800EA0800286002F0C8FBC9
:1006E000286821883040C904D3D580F48050D0E7F1
:1006F00080F01000D5E70000005C00403E000020C4
:10070000660000202C0000200050004084000020E3
:1007100068000020810008480844D0F8001C490403
:1007200009D5D0F8001C48F68F7211404CF28002B7
:100730001143C0F8001C7047005000408100084879
:100740000844D0F8001C490609D5D0F8001C48F62A
:100750008F72114048F2C0021143C0F8001C70476C
:1007600000500040810006480144D1F8000C48F6D2
:100770008F62104048F280021043C1F8000C7047AD
:1007800000500040124910B50A680628117801F09F
:100790007F0103D1012901D1537913B121290AD055
:1007A00013E09078222802D0212802D00DE00949D8
:1007B00004E0094902E0032807D1084929B10020D3
:1007C000916150828847002010BD022010BD0000BA
:1007D0003000002021080008F9070008050800087B
:1007E000014903F0A1B80000B0000020014903F066
:1007F0009BB80000A8000020014903F095B8000054
:10080000B800002008B10448704704490120096875
:100810000882002070470000A40000203000002063
:100820000020704705490968C978042901D90020CA
:100830007047034A02EBC10103F076B83000002094
:10084000F000002009B9002800D002207047000005
:1008500006490968097801F07F01212901D10B2897
:1008600001D00220704700F083B800003000002063
:1008700070B53248002100688172C1723049C9796F
:100880004172002002F058FD4FF40071002002F088
:1008900021FE1021002002F0F3FD1821002002F0BB
:1008A00077FD5821002002F0CDFD0020FFF75AFF10
:1008B000244890F82C10002002F07AFD002002F06D
:1008C000AFFD0021012002F005FE9821012002F079
:1008D0005FFDD821012002F0B5FD4021012002F08A
:1008E00067FD4FF440542146012002F081FD202194
:1008F000012002F0C5FD0021022002F0EBFD4FF4C3
:100900009071022002F044FD4FF4B071022002F019
:1009100099FD4021022002F04BFD2146022002F009
:1009200067FD2021022002F0ABFD074D01242C6061
:10093000002002F009FD2C6070BD00003000002096
:10094000FA5A0008C0000020340100200348807AD1
:10095000002802D00249052008607047E00400200A
:100960003401002001490420086070473401002050
:10097000034804490068C078086000207047000000
:1009800030000020A40000207047704710B500F030
:10099000D3FB054800240068847202F0BFFA03F01C
:1009A0008BFA0248046010BD3000002034010020A2
:1009B0002DE9F047DFF89480254F4FF03009D8F843
:1009C000001001F11005088A0E7A08B9042E04D02F
:1009D000AC88A04215D8042614E01E4801780129ED
:1009E00003D00726102038802BE01B4A0021126814
:1009F0001A4B120403EBD2325160A7F80090017039
:100A00001FE00226844200D90446A9682046884790
:100A10008246002000F03AFB01462246504603F091
:100A200073FA2146002002F01DFD2888001B288053
:100A3000688820446880A7F8009009494FF4405026
:100A40000880D8F800000672BDE8F087300000206A
:100A50004000002028000020505C00400060004062
:100A60003E0000202DE9F047224EDFF88C80302731
:100A7000356835F8100FA968A9B100B3AC88844275
:100A800000D904462046884781462888001B2880D4
:100A9000688820446880002000F0D8FA0146224689
:100AA000484602F009FA288848B114494FF44050EA
:100AB00008800021084602F0D5FCA8F800702888BC
:100AC000A988884201D3032001E020B105203168C4
:100AD0000872BDE8F08731680620087208490020D6
:100AE0000968084A090402EBD1314860A8F800708F
:100AF000EFE7000030000020400000203E00002012
:100B0000505C004000600040F8B55D4C5D4D09262A
:100B10002068002729684278062A05D0AAB1082A49
:100B20004DD00A2A50D06BE00278520668D1807806
:100B3000012804D0022804D0032804D060E0C96949
:100B400056E0096A54E0496A52E04288B2BBC28862
:100B5000022A55D102798ABB0278530601D18388D3
:100B600033B102F07F02012A04D0022A0CD047E000
:100B700045493DE08A69407900219047F0B92068F5
:100B8000807A0028F4D13BE0417901F00F0001F0B8
:100B900070020B063D4901EB8001D1F8001C03D522
:100BA000C1F30111090102E0C1F301310903384B1E
:100BB0001B78834224D90AB90029D9D120E00078D2
:100BC00040061DD1334913E0027802F07F02012A6A
:100BD00016D1827AA2B1428892B9027982B9C288CA
:100BE000012A0DD18A6940790021904740B92A49EC
:100BF00031B120684782816100208847002006E0EB
:100C000029682068096940788847032813D021683B
:100C10000A8AA2F57F43FF3B0BD002280ED06AB1AF
:100C20000878000626D5C888009082420AD9088232
:100C300018E00E72F8BD20680672F8BD4FF008008B
:100C40000872F8BD0ED22868144B90F82C0082422E
:100C500001D21F7006E0B2FBF0F400FB142008B9CB
:100C600001201870286890F82C008882BDE8F840B0
:100C7000FFF79EBE03200872094900030880F8BDF3
:100C800030000020340000206D3900080050004082
:100C9000A000002001390008453900082800002084
:100CA0003E000020704701B581B000204FF4E151B3
:100CB000009001E0401E019001980028FAD10098B0
:100CC000401C00908842F7DB0CBD704710B50DA0AA
:100CD00003F0C8F9012000F0C9F90E49086008685E
:100CE000982182B20C4802F0E7F84FF440510120FD
:100CF00002F07EFB094807490068BDE8104001F09A
:100D000089B900006461746120697320636F6D6943
:100D10006E670A005C000020FC04002070010020C7
:100D20007047000010B5022000F0A0F907494860A4
:100D300048684FF4907182B2054802F0BDF8BDE8F2
:100D400010404FF44051022002F052BB5C000020E2
:100D5000FC0400207047000070B505464FF43026B3
:100D6000304600F059F8042811D1094C206940F0B0
:100D7000020020616561206940F04000206130463A
:100D800000F04AF8216941F6FD721140216170BD01
:100D90000020024008490420CA68D20701D001207F
:100DA0007047CA68520701D502207047C968C90652
:100DB000FBD5032070470000002002400248016973
:100DC00041F080010161704700200240F0B5064605
:100DD0004FF400570D46384600F01EF804280CD199
:100DE000064C206940F0010020613580384600F053
:100DF00013F82169BA1E11402161F0BD00200240A4
:100E00000348024941600349416070472301674537
:100E100000200240AB89EFCD00B50346FFF7BAFFD3
:100E200003E000BFFFF7B6FF5B1E012803D0002BD5
:100E300000D1052000BD002BF4D1FAE78000A0F11D
:100E4000C0400029016802D041F0010101E0024ADE
:100E50001140016070470000FEFF0F0010B5D0E99F
:100E600001121143D0E903231A431143426911438C
:100E700082691143C2691143026A1143426A1143F4
:100E8000826A1143C26A1143026B114302689200E5
:100E9000A2F1C04211608168082907D10168890068
:100EA000A1F1C0410A6842F040020A60416BD1E9F9
:100EB000002342EA03128B688C891B0243EA044335
:100EC0001A430B8A42EA03520B7D896942EA0362A4
:100ED0000A4301688900A1F1C0414A60C16AB1F5C5
:100EE000804F08D000686FF070418000A0F1C040D2
:100EF000C0F8041110BD816BD1E9002342EA03124E
:100F00008B680C8A1B0243EA04531A430B7D8969E0
:100F100042EA036200680A438000A0F1C040C0F8C2
:100F2000042110BDF0B5CA78002502F00F03D206E7
:100F300001D58A7813430A784FF00F0E12F0FF0F95
:100F40004FF001021CD004680F8802FA05F6374002
:100F5000B74211D14FEA850C0EFA0CF724EA0707C5
:100F600003FA0CF43C43CF78282F02D0482F02D04C
:100F700002E0466100E006616D1C082DE4D30460C8
:100F80000C88FF2C1ED944685FF0000606F10807A4
:100F900002FA07F50F882F40AF420FD14FEA860CB7
:100FA0000EFA0CF7BC4303FA0CF73C43CF78282F1A
:100FB00000D14561CF78482F00D10561761C082EFD
:100FC000E4D34460F0BD0246002092680A4200D09B
:100FD0000120704741617047016170472DE9F0477A
:100FE000194C0027C4F880713D4602E0042003F04C
:100FF000F9FCD4F804010028F8D100264FF00109CB
:101000004FEA4508C4F88091042003F0EBFCC4F8D3
:101010008071042003F0E6FCD4F80451761C45EA04
:101020000805182EECDBC4F88091042003F0DAFCEC
:10103000C4F88071042003F0D5FC2802C11700EB2E
:1010400011600012BDE8F0870000224205490968DE
:1010500089B201EBC000044901EB4000008980B275
:1010600070470000505C004000600040054909687E
:1010700089B201EBC000044901EB40008089C0F354
:1010800009007047505C0040006000400449096856
:1010900089B201EBC000034931F8100080B27047FB
:1010A000505C00400060004030B403460C465007DE
:1010B00000D0012000EBD2005043C1B218785B7819
:1010C000812809D3402B07D3FF2B05D0FF2803D05D
:1010D0007F2B0DD2403B0CE00020024604E000BF15
:1010E000401C04F8012BC0B28842F9D330BC7047D1
:1010F000413B8138C0B2C0EB4015DBB205EB80103C
:1011000003EB400048430B4B0C2A0CD0102A0DD0A7
:10111000182AEBD1D3F8192010440A46014620467C
:1011200030BC02F043BFD3F80920F5E7D3F8112013
:10113000F2E70000F62400200A4810B50168001DFF
:101140000468001D006808180BD00822064900F04A
:1011500057F8054920460422BDE81040103100F040
:101160004FB810BDE8F7FF1F4400002038B501213B
:10117000402001F001FF0124ADF8004003208DF86C
:10118000020010208DF8030069460348FFF7CAFEED
:101190000248C0F8804138BD0018014000002342D9
:1011A000FEE7000010B5134C2068017A022904D034
:1011B000042902D0062905D015E0FFF7F9FB2068C5
:1011C000007A11E04178052909D10178490606D154
:1011D000C07802F0B9F808480068006A80470748FC
:1011E000006880688047082021680872BDE81040C8
:1011F00001F072BE300000203800002034000020D2
:10120000F0B500230A24302537261F4611E000BF21
:10121000B4EB107F02D905EB107C01E006EB107CEB
:1012200001F813C001EB430C00015B1C8CF801704A
:10123000DBB29342ECD3F0BD08B502226946034805
:1012400001F0F4FF02490098086008BD000005089D
:101250004C010020F8B501210C2001F08DFEE020AA
:10126000ADF800001025174E8DF8035003248DF8BB
:10127000024069463046FFF755FEADF800408DF854
:1012800003508DF8024069460F48FFF74BFE1F20C0
:10129000ADF8000048208DF803008DF80240694643
:1012A0003046FFF73FFE094D002400BF05EBC400A8
:1012B000818855F83400FFF78FFE641CE4B2052CDA
:1012C000F4D3F8BD00080140000C01404C0400209C
:1012D000F8B501211C2001F04FFE4FF48070ADF8ED
:1012E000000010258DF8035003248DF80240694654
:1012F0002148FFF717FE4FF46060ADF800001F4E65
:101300008DF803508DF8024069463046FFF70AFE1B
:101310004FF45070ADF80000194F8DF803508DF860
:10132000024069463846FFF7FDFD4FF4F070ADF816
:10133000000048258DF803508DF80240694630467C
:10134000FFF7F0FD8020ADF800008DF803508DF818
:10135000024069463846FFF7E5FD0A4D002400BF0C
:1013600005EBC400818855F83400FFF735FE641C96
:10137000E4B2072CF4D3F8BD00080140000C014092
:10138000001001409C04002000B597B002200F908F
:1013900000200521CDE910014FF08051CDE9140165
:1013A0001290139008210090CDE901011021CDE9A0
:1013B0000310069009020790CDE908010A900B90EE
:1013C0000C900FA80D900E906846FFF747FD012185
:1013D0000020FFF733FD17B000BD000070B54FF0DF
:1013E000C0452A232B800A4B0C0A1C80CEB21E80DB
:1013F0001C80C9B219802B212980010A1980C4B22E
:101400001C801980C0B218802C2028801A8070BDE2
:10141000000002602DE9F04F8046A2EB0800401C5E
:101420008A4686B2A3EB0A00401C87B20025DDF88D
:1014300024B011E000240AEB050909E008EB0400E0
:101440001FFA89F180B25A46FFF7C8FF641CA4B2A4
:10145000B442F3D36D1CADB2BD42EBD3BDE8F08F07
:1014600070B51D4614464B190A460119491E5B1EEC
:10147000049EFFF77DF80020064A6C4306E033180F
:10148000315C5B7803EB01211180801CB0EB440FD1
:10149000F5D370BD000002602DE9F8430121080278
:1014A00001F052FD01217C2001F066FD10248DF831
:1014B00003400325DFF8A4808DF802506602ADF8E2
:1014C000006069464046FFF72DFD2027ADF800700B
:1014D00069462348FFF726FD8DF8025018208DF845
:1014E00003004CF20370ADF8000069464046FFF778
:1014F00019FD4FF68070ADF8000069461948FFF7F6
:1015000011FDADF8004069464046FFF70BFDADF810
:10151000007069464046FFF705FD8020ADF80000E9
:1015200069464046FFF7FEFCE001ADF80000694661
:101530004046FFF7F7FC31464046FFF74DFD1021CE
:101540004046FFF749FD20214046FFF745FD802139
:101550004046FFF741FDBDE8F8830000001401405C
:1015600000100140001801402DE9FF4F80461D4644
:101570000C468B46580700D0012000EBD5006908C7
:101580004843203A00F0FF0AD0B2002602903EE025
:101590000C2D11D0102D0FD0182D3AD102981E49C4
:1015A00000EBC00001EB80004FF00009875D3806BA
:1015B00007D54FF6FF7207E01849029801EB0010BB
:1015C000F2E70D9820B9002221464046FFF706FFBA
:1015D0007806070E1248641CA4B20188414518D948
:1015E000A4EB0B00A84209D108F101001FFA80F812
:1015F0000B485C46018841450BD906E009F1010022
:1016000000F0FF09B9F1080FD1D3761CF6B25645A8
:10161000BED3BDE8FF8F00007C2E01088C28010896
:10162000E82400202DE9FC4F8A4602EBC201CDE9F7
:101630000010994680460C2B04D0B9F1180F05D044
:1016400000243FE04FF0480B002415E04FF0900BD2
:10165000002405E0B9F10C0F0ED0B9F1180F33D109
:101660001A49009801EB00105646075D0025380620
:1016700007D54FF6FF7207E01549009801EBC0004F
:10168000F2E70B9820B9002231464046FFF7A6FE4C
:101690007806761E070EB6B2072D0DD108F10100AF
:1016A00001991FFA80F8A8EB0100182804D10AF16B
:1016B000080088461FFA80FA6D1CEDB2082DD6D3BB
:1016C000641CE4B25C45C5DBBDE8FC8FD83B010877
:1016D000B84301082DE9FE4F044600F0FF0A101937
:1016E0000D461FFA80F8DDE90C9B581987B20026D9
:1016F00019E0444502D318355446ADB2BD4214D268
:1017000000204FF6FF71CDE9000102909BF8002008
:101710000C232946204601F07DFF1834761CA4B224
:101720000BF1010BF6B24E45E3D3BDE8FE8F2DE978
:10173000FE4F044600F0FF0A10190D461FFA80F80C
:10174000DDE90C9B581987B2002619E0444502D305
:1017500018355446ADB2BD4214D200204FF4784142
:10176000CDE9000102909BF800200C232946204679
:1017700001F050FF1834761CA4B20BF1010BF6B245
:101780004E45E3D3BDE8FE8F2DE9FE4F044600F041
:10179000FF0A10190D461FFA80F8DDE90C9B581955
:1017A00087B2002619E0444502D318355446ADB23D
:1017B000BD4214D200204FF6FF71CDE90001029026
:1017C0009BF8002018232946204601F023FF1834F7
:1017D000761CA4B20BF1010BF6B24E45E3D3BDE883
:1017E000FE8F000070B51D4614464B190A460119BC
:1017F000491E5B1E049EFEF7BBFE002003496C439E
:1018000001E00E80401C8442FBD870BD00000260E5
:101810002DE9F843FFF7B8FDF9484FF4F0764FF49F
:10182000A077068047804FF47A794846FFF73BFA65
:10183000F4484FF40054046042F210752846FFF754
:1018400032FAF048001F04602846FFF72CFAD32034
:1018500045072880EC4C208841F288384046FFF745
:1018600022FA20884046FFF71EFA20884046FFF7FC
:101870001AFA20884046FFF716FA20884046FFF7FC
:1018800012FA20884046FFF70EFAC020288048460A
:10189000FFF709FA0F2020804846FFF704FA0F20CF
:1018A00020804846FFF7FFF9C12028804846FFF70F
:1018B000FAF9412020804846FFF7F5F9C520288035
:1018C0004846FFF7F0F9002020804846FFF7EBF983
:1018D0003A2020804846FFF7E6F9B12028804846A4
:1018E000FFF7E1F9D02020804846FFF7DCF911200E
:1018F00020804846FFF7D7F9B62028804846FFF7F2
:10190000D2F9022020804846FFF7CDF9222020801E
:101910004846FFF7C8F9B72028804846FFF7C3F9C3
:10192000C62020804846FFF7BEF9E02028804846C0
:10193000FFF7B9F9002020804846FFF7B4F90B20E3
:1019400020804846FFF7AFF9102020804846FFF777
:10195000AAF9032020804846FFF7A5F9102020802F
:101960004846FFF7A0F9082020804846FFF79BF97A
:10197000332020804846FFF796F98920208048468A
:10198000FFF791F9482020804846FFF78CF907209F
:1019900020804846FFF787F90E2020804846FFF751
:1019A00082F90C2020804846FFF77DF9282020800E
:1019B0004846FFF778F92D2020804846FFF773F955
:1019C0000F2020804846FFF76EF9E1202880484626
:1019D000FFF769F9002020804846FFF764F91220DC
:1019E00020804846FFF75FF9172020804846FFF720
:1019F0005AF9032020804846FFF755F9112020802E
:101A00004846FFF750F9082020804846FFF74BF979
:101A1000372020804846FFF746F967202080484657
:101A2000FFF741F94C2020804846FFF73CF907209A
:101A300020804846FFF737F90F2020804846FFF7FF
:101A400032F90C2020804846FFF72DF92F20208006
:101A50004846FFF728F9342020804846FFF723F94D
:101A60000F2020804846FFF71EF9F22028804846C4
:101A7000FFF719F9182020804846FFF714F9A32032
:101A800020804846FFF70FF9122020804846FFF7D4
:101A90000AF9022020804846FFF705F9B22020808D
:101AA0004846FFF700F9122020804846FFF7FBF870
:101AB000FF2020804846FFF7F6F810202080484697
:101AC000FFF7F1F8002020804846FFF7ECF8F720F8
:101AD00028804846FFF7E7F8A92020804846FFF70E
:101AE000E2F8912020804846FFF7DDF82D20208085
:101AF0004846FFF7D8F80A2020804846FFF7D3F879
:101B00004F2020804846FFF7CEF8F820288048462E
:101B1000FFF7C9F8212020804846FFF7C4F80420C9
:101B200020804846FFF7BFF8362028804846FFF758
:101B3000BAF8482020804846FFF7B5F83A202880B8
:101B40004846FFF7B0F8662020804846FFF7ABF81C
:101B5000F92028804846FFF7A6F800202080484654
:101B6000FFF7A1F8082020804846FFF79CF8F420F2
:101B700028804846FFF797F8002020804846FFF766
:101B800092F8002020804846FFF78DF8082020803A
:101B90004846FFF788F8912020804846FFF783F8F1
:101BA000042020804846FFF77EF821202880484600
:101BB000FFF779F8112028804846FFF774F82920AC
:101BC00028804846FFF76FF83A2028804846FFF7FC
:101BD0006AF8552020804846FFF765F821202880C4
:101BE0004846FFF760F8002033463A460146009029
:101BF000FFF7F8FDBDE8F84304A002F033BA000097
:101C0000E824002014140140000002606C6364208A
:101C1000696E6974206F7665720A00007047FEE78E
:101C20007047704770B50F23C47801780122F4B172
:101C3000144C2468457804F4E064C4F5E064240A94
:101C4000C4F10406E3408478B5401C402C4301F104
:101C5000E021230181F80034007800F01F018A4060
:101C60004009800000F1E020C0F8002170BD01F0C3
:101C70001F0082404809800000F1E020C0F8802168
:101C800070BD00000CED00E0024908430249086005
:101C9000704700000000FA050CED00E070B52F4D14
:101CA0002868017844784A0606D001F07F000128B0
:101CB00028D002282BD035E0092C06D0052C07D0DF
:101CC000032C0ED0012C14D02CE001F099FE28E05A
:101CD000C1787F292ED8817861BB818851BB807AF9
:101CE00027E0C17801291DD18088D8B901F0A4FE70
:101CF00017E0C178012915D1818899B9407A800609
:101D00000AD40FE00B2C0DD101F0ECFE09E0012C00
:101D100002D0032C03D005E001F074FD01E001F0D6
:101D20009DFE58B10E492046096849698847032835
:101D300002D018B108200DE009200BE0094A062066
:101D400000211268084B120403EBD2325160074A9B
:101D5000302111802968087270BD00003000002019
:101D600034000020505C0040006000404000002033
:101D700070B586B000F088F8354D00242C63AC7047
:101D8000EC702C72EC71EC60EC61AC616C616C70AD
:101D9000AC71204605F134010C54401CC0B2082837
:101DA000FAD32C716C71AC622C6200F0F3FEC82186
:101DB000284800F027FF274A0020411C00EB800044
:101DC0008BB202EB800003EB830302EB830304700E
:101DD000436088B20928F0D300EB800002EB80005A
:101DE000047044602A6100F0B1FE00F015FF802607
:101DF0001948CDE901064FF6FF70009003253F23F7
:101E0000164A00211648CDE9034500F061FA05AAFB
:101E100014A13F2000F0ACFA0E480F4AC830CDE9BB
:101E200001064FF6FE7000903E23121F002111485C
:101E3000CDE9034500F04CFA05AA0FA13E2000F0C1
:101E400097FA00F01BFD06B0BDE8704000F022B824
:101E5000F0030020E8140020B0170020AC19002087
:101E6000AD2D000875432F4F532D49492049646C0F
:101E700065000000C92D000875432F4F532D4949B7
:101E800020537461740000000149002008807047ED
:101E9000EC030020704700000449C879012804D1F0
:101EA0008878FF2801D2401C88707047F00300201A
:101EB00070B5144CE079012822D1FEF733F90546BC
:101EC000A07820B1401E10F0FF00A07013D1E07880
:101ED00088B900F0E5FE0C48617950F82100A06255
:101EE0002279914207D0816B491C8163E068401CD4
:101EF000E060FEF736F92846BDE87040FEF716B9F7
:101F000070BD0000F0030020B019002070B5054638
:101F10000C48007808B1002070BDFEF703F90A49AB
:101F20000C680CB162680A60FEF700F93CB1012050
:101F30002070002020812046656000F0FDFD2046D5
:101F400070BD0000F2030020000400202DE9F047DE
:101F5000054600788A461446012801D0012008E091
:101F60002948007808B1022003E02848007820B111
:101F70000D2010700020BDE8F087FEF7D3F86E68E2
:101F8000074600213EB1884638466960FEF7CEF824
:101F900084F8008036E0DFF878908846D9F80000B1
:101FA00010F8302F42F002020270417040F804AC89
:101FB000284600F09DFD3846FEF7B8F800F04CFECC
:101FC000FEF7B0F80746D9F8000090F8311031B1AB
:101FD000022908D0294600F07BFD0A2004E0066AA9
:101FE00084F8008001E00E202070D9F800103846F7
:101FF00081F8308081F8318041F81C8FC1F804806D
:10200000FEF794F83046B6E7F2030020F303002011
:102010001004002070B5044600780D46012801D058
:10202000012070BDFEF77EF80646A07A58B1002365
:1020300002222946204600F019FD3046FEF776F8C8
:1020400000F00AFE0AE0606820B13046FEF76EF844
:10205000142070BD30466560FEF768F8002070BD42
:1020600010B5094CE07901280CD1FEF75BF8A17896
:1020700021B9E178FF2901D2491CE170BDE8104087
:10208000FEF754B810BD0000F003002010B50D4C51
:10209000E079012814D1FEF745F8E17831B1491E05
:1020A00011F0FF01E17001D1A17819B1BDE8104034
:1020B000FEF73CB8FEF73AF8BDE8104000F0CCBDA2
:1020C00010BD0000F003002070B505460C480078F4
:1020D00008B1002070BDFEF725F80A490C680CB164
:1020E00062680A60FEF722F83CB103202070258167
:1020F00000206060204600F01FFD204670BD0000FB
:10210000F2030020000400202DE9F0470646007885
:1021100089461446032801D0012008E025480078AC
:1021200008B1022003E02448007818B10D20107097
:10213000BDE8F087FDF7F6FF07463089002530B18E
:10214000401E30813846FDF7F1FF2570F0E7DFF8DB
:102150006C80D8F8000010F8301F41F001010170C8
:10216000457040F8049C304600F0C2FC3846FDF74C
:10217000DDFF00F071FDFDF7D5FF0746D8F8000040
:1021800090F8311031B1022906D0314600F0A0FCA0
:102190000A2002E0257001E00E202070D8F800002F
:1021A00080F8305080F83150C5613846BDE8F047BE
:1021B000FDF7BCBFF2030020F30300201004002051
:1021C00070B504460078032801D0012070BDFDF7EA
:1021D000A9FF0546A07A58B10023012219462046DE
:1021E00000F044FC2846FDF7A1FF00F035FD09E0B2
:1021F00020894FF6FF71884206D2401C2081284674
:10220000FDF794FF002070BD2846FDF78FFF3320B7
:1022100070BD000010B5094CE07900280CD100F029
:102220003FFD60790649207151F82000A0622062CC
:10223000BDE81040FDF77DBF10BD0000F003002099
:10224000B0190020704700002DE9FE431C461546DA
:102250000F468046FDF766FF1A49097821B1FDF760
:1022600065FF3C20BDE8FE83174E56F8241019B1D7
:10227000FDF75CFF2820F5E7012146F82410FDF763
:1022800055FF00232A463946404600F01DF9002537
:102290000146009501952B462A462046029500F0FE
:1022A0000FFD070007D0FDF73DFF46F82450FDF76E
:1022B0003DFF3846D6E7054800780128F9D100F0FF
:1022C000CBFCF6E7F2030020B0190020F703002052
:1022D0002DE9FF4F83B01C46DDE91386DDE9119738
:1022E00092468B46FDF71EFF1D49097829B1FDF77F
:1022F0001DFF3C2007B0BDE8F08F1A4D55F82410A3
:1023000019B1FDF713FF2820F4E7012145F8241047
:10231000FDF70CFF32463946484600F09DFD334636
:1023200052465946039800F0CFF80097CDE9018650
:1023300001464A462046109B00F0C2FC060008D029
:10234000FDF7F0FE002145F82410FDF7EFFE3046C2
:10235000D0E7054800780128F9D100F07DFCF6E7C8
:10236000F2030020B0190020F703002070477047E7
:1023700070B5054611480E461446007810B112207B
:10238000107070BDFDF7CEFE0146FF2D03D10C4845
:10239000006890F832500B4850F82500432540B1B2
:1023A000012806D0C6640846FDF7C0FE0020207054
:1023B00070BD0846FDF7BAFE257070BDF20300201F
:1023C00010040020B019002010B50446FDF7AAFE45
:1023D0001B4951F8241059B101290DD091F8302032
:1023E000130729D512F0F70281F8302008D009E050
:1023F000FDF79CFE462010BDFDF798FE432010BD62
:10240000CA6A1AB1FDF792FE002010BD0D4A91F87C
:10241000363014782343137011F8343F0A4A497850
:10242000D45C0C43D454FDF781FE084800780128A1
:10243000EAD100F011FCE7E7FDF778FE442010BD7B
:10244000B0190020F603002024040020F703002028
:10245000704700002DE9F0410446002008600D4659
:102460004860FDF75FFE0146FF2C03D11448006869
:1024700090F83240134850F8240058B1012809D090
:10248000027CD2070CD0D0E9027600240846FDF782
:102490004DFE0BE00846FDF749FE4320BDE8F08104
:1024A0000846FDF743FE4520F8E7641C01CF0028ED
:1024B000FBD0A0002860301B800068600020EDE7A2
:1024C00010040020B01900204FF080731360131F18
:1024D0001860A2F108006FF001030360001F4FF0C5
:1024E00012330360001F4FF003330360001F4FF0EF
:1024F00002330360001F5B100360001F0160001FB8
:102500004FF011310160001F19010160001F4FF0F1
:1025100009310160001FD9000160001F4FF0073131
:102520000160001F4FF006310160001F4FF00531C0
:102530000160980042F83C0D1046704770B50446A3
:10254000FDF7F0FD03461D48FF2C006805D090F80C
:102550003200A04204D1012503E090F83240FAE7AE
:102560000025174850F8240058B101280ED090F8E3
:102570003420144C90F83560A15CB143A1540AD0CA
:102580000FE01846FDF7D2FD482070BD1846FDF754
:10259000CDFD432070BD0C4990F836400A78A24327
:1025A0000A7010F8301F41F0080101701846FDF75D
:1025B000BDFD0DB100F050FB002070BD10040020E7
:1025C000B019002024040020F6030020704700000A
:1025D00070B5044613480078002821D112480078CD
:1025E00000281DD1002C1BD0FDF79CFD03460F4891
:1025F0000F4D016891F8340091F835602A5CB243C0
:102600002A5405D10B4891F836500278AA4302703B
:102610001846CC62FDF78AFDBDE8704000F01CBB97
:1026200070BD0000F2030020F3030020100400201E
:1026300024040020F60300202DE9F04100F04CF8BE
:10264000FDF770FD234D296B491C2963FDF76EFDD5
:10265000E87901283BD1687A0126002720B10128BA
:1026600035D0022802D06F72EC6A2CE06E72FBE764
:10267000FDF758FDE16A19B3491EE16220D194F8D3
:10268000301011F0370F06D001F0C80184F8301077
:1026900084F8316001E084F8317094F83010090753
:1026A0000ED494F83610AA791143A971094994F807
:1026B0003420343194F835C08B5C43EA0C038B54DE
:1026C0006469FDF733FD94F832003F28D0D1BDE8AE
:1026D000F0810000F003002005480188491C89B200
:1026E0000180142903D30021018000F043B8704712
:1026F000EC0300202DE9F05F81461A48DDF828B090
:102700000C9E00781F4690468A4608B18B2025E033
:10271000FFF7A6FC144800250468E4B1E1680160F5
:102720001249E56025610888401C0880104801882E
:10273000491E0180012084F82500C4E9069A84F826
:102740002480C4E9017B0B982062FFF79FFC357061
:102750002046BDE8F09FFFF799FC862030700020EE
:10276000F7E70000F20300204404002036040020B4
:102770003404002001480068FFF722BD4004002017
:1027800070B5054600780C46642801D0892003E026
:102790001348007810B18B2008701FE0FFF760FC31
:1027A00095F82500B0B1002601280AD0022808D0EB
:1027B000032803D0FFF76AFC8D200EE0284600F0C6
:1027C00035F90021284600F0CFF8FFF75FFC2670AE
:1027D000012070BDFFF75AFC87202070002070BDDB
:1027E000F20300202DE9F0410546007816460F4619
:1027F0001C46642801D0892003E01F48007810B1EE
:102800008B20187036E0FFF72BFC95F8250068B395
:10281000012826D0022824D0032803D0FFF736FC55
:102820008D2026E0284600F001F9002020709FB19D
:102830008F20032F03D0042F07D084200BE06A6879
:102840004AB12846A968904706E06B681BB131463B
:102850002846984700E02070FFF718FC0120BDE8EB
:10286000F081FFF713FC8E202070F7E7FFF70EFCD6
:10287000872020700020F2E7F203002030B587B0F7
:102880004FF42071294800F0BDF94021284800F09C
:10289000B9F90020254904466423421C00EB80005E
:1028A00001EBC00095B205EB8505037001EBC50592
:1028B00080F82540C5601FA5056290B20F28ECD3B3
:1028C00000EB800001EBC0001AA2037080F82540E5
:1028D000C460026218481A4A046018480480102034
:1028E0001080184801600120FFF7EEFB16490860D0
:1028F0000020FFF7E9FB1549154A0B2308608021EA
:1029000002910320CDE903404FF6FD70CDE90002AE
:1029100002F5FE7200210F48FFF7DAFC05AA0EA1AE
:102920000B20FFF725FD07B030BD00002820002058
:10293000A82400203F0000003804002036040020B6
:1029400034040020440400203C0400204004002003
:10295000A8220020B529000875432F4F532D49495F
:1029600020546D7200000000032280F825200F4AD9
:102970000129126814D0816991B111444161017D2E
:102980000B4A01F0070102EBC10100230A6808604D
:1029900042B1C26010618A88521C8A80036170470C
:1029A000C169EAE70122C360F7E7000038040020AC
:1029B000A824002008B5DFF86880DFF868901A4D79
:1029C0006A460021D8F80000FFF79EFBFFF748FB9E
:1029D0002868401C286000F00700022759F83040A2
:1029E00013E060692968E66888420DD1204600F04E
:1029F0001DF894F8240002280CD084F82570626831
:102A000012B12046A16890473446002CE9D1FFF767
:102A10003DFBD5E701212046FFF7A6FFEFE70000C9
:102A200040040020A82400203804002010B5017DB7
:102A30000D4A01F0070102EBC10200231468C168CE
:102A4000844203D1116029B10B6103E00469E160A4
:102A500001B10C61012180F82510C36003619088E9
:102A6000401E908010BD0000A8240020F0B50E4646
:102A70000146847A13480027045D0D19ED7A405D04
:102A800000EBC400C5B2104850F82500C7620662CA
:102A900090F83060964380F8306080F8313032072B
:102AA0000BD40A4A90F83630967933439371343216
:102AB00090F83560135D3343135500F009F828464C
:102AC000F0BD00004C5B0008B0190020F0030020AE
:102AD00010B590F8342090F835408B18DA7AA2437C
:102AE000DA7204D18A7A90F8360082438A7210BD75
:102AF00030B5104900F10B020B6A43F81C0F1C7E25
:102B00005B7EA55C1D43A5540A6A837A92F8364021
:102B10002343837292F8340001F1340492F8355063
:102B2000235CAB43235404D192F836208879904338
:102B3000887130BDF00300200022827211464318D4
:102B4000491CC9B2DA720829F9D3704710B550216F
:102B50000D4800F057F800200B4A0346411C02EBD9
:102B600000108CB202EB04140370446007A4C4602C
:102B700088B20428F2D302EB001004A10370436072
:102B8000C1600348026010BD481F00203F000000E4
:102B90002C04002000B54FF49361164800F032F881
:102BA0004FF48071144800F02DF8124A0020411CA7
:102BB0000B46C9B2C0EBC00000EB4000C1EBC10145
:102BC00002EB800001EB410102EB810141610BA1AD
:102BD000C164D8B20D28EAD3C0EBC00000EB4000BE
:102BE00002EB800005A30021C364416104484262F6
:102BF000C16200BDB01A0020B01900203F000000E3
:102C0000F0030020002203E0491E00F8012B89B2E6
:102C10000029F9D17047000010B590210C48FFF74A
:102C2000F1FF0B4A0020411C8BB200EB400003EB8C
:102C3000430302EBC30342F8303088B20528F2D3D5
:102C400000EB4000002142F830100248026010BD45
:102C5000981F00203004002070B5FDF763FA0E4C79
:102C60000546A07898B9E07888B900F019F80B49C2
:102C7000607951F82010A1622279904207D0886BC8
:102C8000401C8863E068401CE060FDF763FA28465A
:102C9000BDE87040FDF74ABAF0030020B0190020EB
:102CA0000649054A01F134038879105C1B5CD25C4B
:102CB00002EBC000487170474C5B0008F003002035
:102CC0002DE9F05F9846DDE90ABA91460D460746C0
:102CD000FDF728FA324E746A002C5CD06169183412
:102CE0007162FDF723FA44F8185CA7760025257673
:102CF0006576656144F80CBC44E905A90C9824F894
:102D0000080C24F8068CE577FA08227707F007010B
:102D1000012000FA02F2E176A277884060776560D0
:102D2000E560A5602562A56265621EA0E562C4E952
:102D30000C500020B4F1180404EB8001401C0D6518
:102D400010F0FF00F8D02046FFF77CFA2046FFF78E
:102D50000DFBFDF7E7F90146134840F82740F06AFC
:102D6000C4E9050500B18461F46294F83600B279D3
:102D70001043B0710A4814F8342F34306478835CFF
:102D800023438354307A401C30720846FDF7CEF955
:102D90000020BDE8F09FFDF7C9F94220F9E70000E7
:102DA000F00300203F000000B0190020054C00BFD8
:102DB000FDF7B8F9E169491CE161FDF7B7F9FFF7E3
:102DC000D6FAF5E7F0030020144C02E02820FFF7C4
:102DD000FFFB60780028F9D0642160690025B0FB12
:102DE000F1F0606118B92570FF20FFF7A7FBFDF730
:102DF00099F9E169C4E90615FDF798F9D4E90510D8
:102E0000B0FBF1F0C0F164002070FFF721FB00F08F
:102E100007F81420FFF7DCFBE9E70000F0030020CF
:102E20007CB50C4D002469462046FFF713FB58B9CA
:102E300055F8240040B1012806D0D0E9021201EB78
:102E40008201416401998164641CE4B23F2CEAD997
:102E50007CBD0000B0190020D30707D0920705D52C
:102E60000022002902D004C0491EFAE77047000082
:102E700010B50F4C2068007A022811D004280FD01A
:102E8000032804D0052802D0072805D008E0FDF764
:102E9000E9FD2068007A04E006480068C0688047C1
:102EA000082021680872BDE8104000F015B8000045
:102EB0003000002034000020064B521C520803EB67
:102EC000410105D031F8043B20F8023B521EF9D1F4
:102ED00070470000006000400C4810B590F82C10BE
:102EE000002000F065FA0A480068007A082802D03D
:102EF000092809D006E007494FF4805008800649A8
:102F000010200880002010BD012010BDC00000204E
:102F1000300000203E0000204000002010B50120BD
:102F200000F02AFF0648012101600021054A0160E6
:102F3000031D19604FF4E05111800160002010BDA5
:102F4000405C00403C000020044A0029516901D047
:102F5000014300E0814351617047000000100240CE
:102F6000044A0029D16901D0014300E08143D161C5
:102F70007047000000100240044A0029916901D006
:102F8000014300E08143916170470000001002405E
:102F900030B51F494A6812F00C031E4A03D0042BB7
:102FA00001D0082B21D002604A680F231A4C03EA93
:102FB0001212A35C0268DA4042604B68072505EAFA
:102FC0001323E35C22FA03F383604B6805EAD323FF
:102FD000E35CDA40C2604968032303EA9131231FAE
:102FE000595CB2FBF1F1016130BD4A684B6802F4F3
:102FF00070124FF0020413F4803F04EB924202D0AF
:103000004B689B0301D5054B00E0024B5A43CAE7CE
:103010000010024000127A001800002000093D0054
:103020000149C1F8D80070470000424270B51C4CFD
:10303000072800D020702178062604251948062983
:103040002CD2DFE801F00306090E162000F02CF860
:1030500024E000F029F80AE00220607003202070CC
:1030600070BD6078401E607060780028F8D12570CF
:1030700070BD016889B241F0100101600520207027
:103080000A20607070BD6178491E61706178002906
:10309000F8D1016889B221F010010160267070BD7D
:1030A00039010020405C004010B5064C206880B219
:1030B00020F004002060FEF7B1FD4FF43F40206097
:1030C00010BD0000405C004030B587B001210820F1
:1030D000FFF752FF01218803FFF742FF4FF46044DE
:1030E000ADF8144018208DF817000320194D8DF805
:1030F000160005A92846FDF715FF21462846FDF7CD
:103100006BFF0020ADF800004FF48271ADF80210A3
:10311000ADF804000221ADF806100121ADF8081049
:103120004902ADF80A103821ADF80C10ADF80E00C8
:103130000720094CADF810006946204600F059F808
:103140000121204600F040F8FF2000F007F807B00A
:1031500030BD0000000C01400038004070B506464C
:103160000024114D03E0641CE4B2C82C0FD80221E6
:10317000284600F033F80028F5D03146284600F004
:1031800036F8002405E0641CE4B2C82C01D9002004
:1031900070BD0121284600F021F80028F3D0284610
:1031A00000F023F8C0B270BD003800400146054869
:1031B000028822F03802028002880A43028001213C
:1031C00000F002B8003800400029018802D041F028
:1031D000400101E021F040010180704702460020DB
:1031E00012890A4200D0012070478089704781818E
:1031F000704730B502884C8802F441530A88CD8864
:1032000022438C882C4322430C8922434C8922433D
:103210008C892243CC8922431A430280828B22F478
:1032200000628283098A018230BD000010B500234C
:1032300006E000BF30F8024B21F813405B1C9BB244
:103240009342F7D310BD00002DE9F05FA0F10064B8
:1032500015468A468346B4F5002F52D2FDF7D0FDBD
:10326000E70AC4F34906C6F58064A54200D82C4697
:10327000DFF894904FF0006000EBC72080464FF4D9
:1032800080622149FFF7D2FF00204FF6FF7106E070
:10329000331839F813208A4203D1401C80B2A0426F
:1032A000F6D3A04225D24046FDF756FD0020494600
:1032B00007E000BF3AF810208319401C21F81320C2
:1032C00080B2A042F6D3104940464FF4806200BF5E
:1032D00000F01CF8A54210D0281B0AEB440AA344B6
:1032E000002685B24FF480647F1CA542C2D82C46CC
:1032F000C0E7224651465846EAE7BDE8F05FFDF7D1
:103300005DBDBDE8F09F0000182500202DE9F041CB
:1033100016460F460546002408E000BF37F8141093
:103320002846FDF753FD641CA4B2AD1CB442F5D38E
:10333000BDE8F08170470000024920F007000860F6
:1033400070470000505C0040F0B50E490E4D48F645
:103350008F770B78002148F2800C0BE0CEB205EBA2
:103360008604D4F8002C3A40324342EA0C02C4F8F6
:10337000002C491C9942F1D3044940F080000860B8
:10338000F0BD0000A0000020005000404C5C004058
:10339000054A21F00101126892B202EBC000034A13
:1033A00002EB400081607047505C004000600040CC
:1033B0000D4A12683E2992B202EBC0000B4A02EBA2
:1033C000400209D94809C90601D1401E80B24FF414
:1033D000004141EA802004E04808C90700D0401CB1
:1033E0008002106070470000505C00400C6000409C
:1033F00082000A480244D2F8000C4BF68F73184042
:10340000CB0401D580F48050890401D580F40050AC
:1034100048F280010843C2F8000C70470050004099
:10342000810007480144D1F8000C4BF68F72104020
:1034300080F4405048F280021043C1F8000C7047FD
:1034400000500040054A21F00101126892B202EBDF
:10345000C000034A42F8101070470000505C004062
:1034600000600040044A126892B202EBC000034AB6
:1034700002EB400041607047505C0040006000403B
:1034800082000A480244D2F8000C48F6BF73184084
:10349000CB0601D580F01000890601D580F0200010
:1034A00048F280010843C2F8000C70470050004009
:1034B000810007480144D1F8000C48F6BF72104063
:1034C00080F0300048F280021043C1F8000C7047D1
:1034D00000500040820005480244D2F8000C48F633
:1034E0008F1318400843C2F8000C7047005000408A
:1034F0000CB50021264801910091026842F4803207
:1035000002604FF4A063026802F400320092019A54
:10351000521C0192009A12B9019A9A42F3D10268A0
:10352000920333D5012100911A490A6842F0100232
:103530000A600A6822F003020A600A6842F0020286
:103540000A604168416041684160416841F48061BE
:103550004160416821F47C114160416841F4E81107
:103560004160016841F08071016001688901FCD50A
:10357000416821F003014160416841F0020141606E
:103580004168C1F381010229FAD10CBD00910CBD43
:10359000001002400020024010B50020FFF740FD5F
:1035A0000121BDE81040C805FFF7DABC70B5164828
:1035B0000068174D0004C10B14480144098989B201
:1035C00000EB41042868017A09290FD021780170A5
:1035D00061784170A088FCF7EAFF2968488020895B
:1035E000FCF7E5FF29688880A089C8802868012148
:1035F0000172C08828B1FDF787FABDE87040FFF777
:103600006BBCFEF74BFBF8E7505C004000600040ED
:10361000300000202DE9FC4F0446834601F10800EC
:1036200080B215460090994658460A460C2B03D0A6
:10363000B9F1180F02D003E0482100E090218A463A
:1036400002EB490300F117015B1EFCF791FF05EB4C
:10365000C5004FF00008019037E000BFB9F10C0F32
:103660000ED0B9F1180F32D11A49019801EB0011AF
:10367000009E11F808700025380606D50C9A07E060
:103680001549019801EBC001F2E70B9820B90D9A9A
:1036900031462046FDF7A2FE7806761E070EB6B22A
:1036A000072D0AD1641CA4B2A4EB0B00182804D186
:1036B00000985C46083080B200906D1CEDB2082D79
:1036C000DAD308F1010000F0FF08D045C6DBBDE801
:1036D000FC8F0000D83B0108B84301082DE9FF4FDB
:1036E00093B01C46DDF880B013460D46894660074E
:1036F00000D0012000EBD401614301F0FF0A0C2C43
:1037000003D0102C01D0182C30D12246694618461F
:10371000FDF7CAFC002627E01DF806704FF00008F0
:10372000380602D54FF6FF7203E0BBF1000F04D15B
:10373000002229461398FDF751FE78066D1C070EEE
:10374000ADB2A5EB0900A04205D113984D46401C2F
:1037500080B2139006E008F1010000F0FF08B8F114
:10376000080FDDD3761CF6B25645D5D317B0BDE8A9
:10377000F08F2DE9F84F0D460AA9044691E8C008DC
:103780008046307800281ED0E81808EB020AA0EB2B
:1037900007093278802A18D9AAEB0700A04202DA7A
:1037A000E81985B24446A9450DDB3B463246294619
:1037B0002046CDF800B0FFF791FFE01984B216F86B
:1037C000020F0028E5D1BDE8F88FAAEB5700A04210
:1037D00002DAE81985B24446A945F4DB0D2A0CD07B
:1037E0003B4629462046CDF800B0FDF7BDFE04EB70
:1037F000570084B216F8010FE3E7E81985B2444692
:10380000761CF4E72DE9F04138480068017811F0A2
:103810007F0102D0022905D066E0417A01F0DF0184
:1038200041724EE0418800295ED10179F1BB4179B6
:10383000304D21F080040A0605EB84022C4BD2F8AF
:10384000002C03D5C2F30112120102E0C2F30132CF
:1038500012031E782346A64246D93AB3807A28B38B
:1038600008064FEA84000ED52844D0F8000CC0F3B7
:103870000110012821D11846FCF760FF20463021B5
:10388000FFF7FEFD19E04619D6F8000CC0F3013031
:10389000012812D14BF68F7748F28008A4B1184660
:1038A000FCF738FFD6F8000C384000E01CE080F44C
:1038B000405040EA0800C6F8000C0F480068406914
:1038C00080470020BDE8F0810C4890F82C100020C3
:1038D000FFF76EFDD5F8000C384080F4405040EA08
:1038E0000800C5F8000CE8E70220EBE730000020F4
:1038F000A00000200050004038000020C000002040
:1039000010B5074C30B10748006800688047206850
:103910000A3010BD216801200882002010BD00007F
:103920003000002038000020054A13685A8A10B180
:103930000868104470478888801A188200207047F1
:103940003000002010B5074C30B10748006880688F
:10395000804720680C3010BD2168012008820020BB
:1039600010BD00003000002038000020204910B5B4
:10397000096860B11F48002202800A7853060AD005
:1039800002F07F02012A16D0022A16D001E002209E
:103990000882002010BD497A8A06027802D542F0DA
:1039A000020201E002F0FD0249060270D1B211D418
:1039B00001F0FE0110E00F4810BD4A79110713060F
:1039C0000D4A02EB9161D1F8001C07D5C1F301113A
:1039D00006E0017841F00101017003E0C1F301311B
:1039E0000129F6D00548006800698047E3E7000038
:1039F000300000202A000020005000403800002045
:103A00000A4810B500680A4AC1785278914203D832
:103A100082780AB982880AB1022010BD81720548F5
:103A2000006840688047002010BD00003000002082
:103A3000A000002038000020064810B50068417A38
:103A400041F02001417204480068C06980470020AD
:103A500010BD0000300000203800002070B51D4867
:103A60001D4D0368597921F0800005EB80000C069C
:103A7000D0F8004C21F0800203D5C4F301142401D6
:103A800002E0C4F301342403144D2D78954210D97B
:103A90005A8872B96CB19A7A5AB10906D0F8001CEA
:103AA00048F2800207D548F6BF73194081F0100133
:103AB00006E0022070BD4BF68F73194081F48051EF
:103AC0001143C0F8001C0648006880698047002048
:103AD00070BD00003000002000500040A000002019
:103AE0003800002010B50E4C0E4A20681268C178CC
:103AF00092694079904721688A7A22B118B9087989
:103B000008B9887808B1022010BD07480068C0686D
:103B1000804720684179C172C1780173002010BDCF
:103B200030000020340000203800002006480168E2
:103B300089B241F008010160016889B241F00401D5
:103B40000160FDF707B90000405C00404FF0E02144
:103B50000428086903D020F004000861704740F091
:103B60000400FAE7064810B50078012807D1FEF7EF
:103B700093F9FEF761FDBDE81040FEF799B910BD5D
:103B8000F70300200F4810B5016841F00101016002
:103B900041680D4A1140416001680C4A11400160C2
:103BA000016821F480210160416821F4FE01416037
:103BB0004FF41F018160FFF79BFC05494FF0006047
:103BC000086010BD001002400000FFF8FFFFF6FE85
:103BD00008ED00E070B5FEF75FF9164C40F2255194
:103BE000204600F037F8E0B1204600F0C1F8C2B23C
:103BF000114801880B0414D44C044FF0000304D581
:103C00000A2A0DD141F4004111E00D2A0DD0C1F373
:103C10000D040A4D491C89B22A550180C72900D9D3
:103C20000380BDE87040FEF743B941F48041018054
:103C3000F7E7000000380140DA040020182D0020CA
:103C40000029818902D041F4005101E021F40051A2
:103C50008181704730B501F01F0201240025C1F3B6
:103C6000421304FA02F2012B0FD0022B0FD0838AE9
:103C70004FEA11210088134204FA01F400EA04001B
:103C800001D000B10125284630BD8389F0E7038AC1
:103C9000EEE710B5C1F3421301F01F040121A1406A
:103CA000012B07D0022B07D01430002A026805D060
:103CB0000A4304E00C30F8E71030F6E78A4302606C
:103CC00010BD000030B50446008A85B00D464CF6A4
:103CD000FF710840E98801432182A1894EF6F31063
:103CE0000140A8882A8910436A890A431043A081A9
:103CF000A08A4FF6FF410840A9890143A182684686
:103D0000FFF746F91948844201D1039800E0029870
:103D1000A189090400EBC00101EB0010296801D55D
:103D2000490000E08900B0FBF1F06422B0FBF2F141
:103D300009010B096FF018056B4300EB8300A389A1
:103D40001D044FF0320306D503EBC000B0FBF2F0C8
:103D500000F0070005E003EB0010B0FBF2F000F00C
:103D60000F000843208105B030BD0000003801403D
:103D70008088C0F308007047044A00284FF40061AF
:103D8000104601D0FDF726B9FDF726B9001801400D
:103D900010460022402805D94020044B9B5C01F8C6
:103DA000013B521C8242F8D370470000FC04002003
:103DB00006480549022201600A72064A0449C0E920
:103DC0000112086800470000E004002030000020D5
:103DD000C00000201001002008B514208DF800005C
:103DE00001208DF8010000218DF802108DF80300EC
:103DF0006846FDF717FF08BD70B5294E3068294C9D
:103E000060806088284D29880840000401D5FCF7AF
:103E1000D3FB608829880840400505D54FF6FF3060
:103E200030602248406880476188288801408904C2
:103E300002D54DF6FF71316061880140C80405D597
:103E40004EF6FF7030600020FFF7F0F86088298898
:103E5000084000050BD51648007810B1FFF766FE44
:103E600002E00220FFF7E2F84FF2FF703060618855
:103E700028880140890505D54FF6FF51316021782A
:103E8000491C217061880140C80507D54FF6FF60C5
:103E90003060BDE870400720FFF7C8B870BD000073
:103EA000445C0040640000203C000020C000002072
:103EB00038010020FFF7A0BF054900200860054930
:103EC0004FF43F4008800249091F086000207047F6
:103ED000445C00403C00002070B514460B4605468B
:103EE000012892B20DD04FF4B071184600F00CF8D2
:103EF000A1B22846FFF7B6FA2846FFF7D9FA2046BE
:103F000070BDD821F1E7FEE7094B10B5521C5208ED
:103F100003EB41010AD000BF10F8013B521E10F81C
:103F2000014B43EA042321F8043BF5D110BD000006
:103F30000060004038B501212020FFF71DF84FF444
:103F40008054ADF8004010208DF803000320104D80
:103F50008DF8020069462846FCF7E4FF2146284612
:103F6000FDF73AF80B490120C1F8B001FFF7ACF8B2
:103F70000020FFF71BF9084C08A0218800F072F818
:103F800000F03CF82080014604A000F06BF838BD3A
:103F90000014014000802242D404002077323571A1
:103FA000363449443D25640A000000002DE9F04103
:103FB000114E0746002015460C46C6F8B0010320F6
:103FC000FFF7CCF8C4F30740FFF7C8F8C4F30720A5
:103FD000FFF7C4F8E0B2FFF7C1F8002405E0FF20C6
:103FE000FFF7BCF83855641CA4B2AC42F7D30120EB
:103FF000C6F8B001BDE8F0810080224270B50F4CD8
:104000000025C4F8B051902004F5D874FFF7A6F845
:104010000020FFF7A3F80020FFF7A0F80020FFF72B
:104020009DF8FF20FFF79AF845EA0025FF20FFF7EB
:1040300095F828430121216070BD000000802242D4
:1040400010B5074C0020C4F8B001052004F5D87461
:10405000FFF784F8FF20FFF781F80121216010BDF0
:10406000008022420FB4054B10B503A9044A029800
:1040700000F018F810BC5DF814FB0000514A00086D
:10408000DC04002002E008C8121F08C1002AFAD18F
:1040900070477047002001E001C1121F002AFBD1C8
:1040A000704700002DE9FF4F8DB09B460F46044638
:1040B000002606E025280BD05A460F999047641C2D
:1040C000761C20780028F5D111B03046BDE8F08F7D
:1040D0000025A8460122984900E0054314F8013F55
:1040E000203B02FA03F00842F7D120782E2817D19E
:1040F00014F8010F45F004052A280ED06FF02F02A6
:104100002078A0F1300109290AD808EB880102EBD8
:10411000410100EB0108641CF2E757F8048B641CB2
:1041200020786C280DD004DC4C2812D06A2811D1DC
:1041300004E074280DD07A280CD10AE045F400156B
:1041400007E0617845F48015814202D1641C05F5D1
:104150008015641C2278692A45D008DC002AB3D077
:10416000582A69D0632A10D0642A08D13BE0702A0B
:1041700067D0732A13D0752A5CD0782A5CD0104699
:104180005A460F999047761CD3E017F8040B8DF828
:10419000000000208DF80100E946012003E057F8F7
:1041A000049B4FF0FF3069074FF0000501D40AE08F
:1041B0006D1C45450DDA8542FADB19F8051000291A
:1041C000F6D106E06D1C8542FCDB19F805100029CC
:1041D000F8D12E4404E019F8010B5A460F99904784
:1041E0006D1EF8D2A5E00A200021CDE90801C5F333
:1041F000025002280DD001CFC117031E71F1000338
:104200000DDA4FF0000CD0EB0C006CEB01012D230C
:1042100008E0FF1D27F00707F7E80201EDE72B058F
:1042200004D52B238DF8283001233BE0EB0739D050
:104230002023F7E70A2000E010200021CDE9080143
:1042400007E01020002145F00405CDE908014FF0FA
:104250000808C5F3025002280FD001CF00214FF00B
:10426000000A2B071FD5702A0DD0DDE908C38CF09A
:10427000100C5CEA030C0CD015E0FF1D27F00707BB
:10428000F7E80201EBE740228DF828204FF0010A01
:104290000BE050EA010306D030238DF828308DF86A
:1042A000292002239A46582A04D024A20DF120097D
:1042B0000B9209E026A2F9E7DDE90823FCF730F8C4
:1042C0000B9B9B5C09F8013D50EA0102F4D1ADEB78
:1042D000090020300890680701D44FF001080899C0
:1042E000884502DDA8EB010000E0002080460025A3
:1042F00006E00AA85A46405D0F9990476D1C761C4F
:104300005545F6DB04E030205A460F999047761C5D
:10431000B8F10001A8F10108F5DC05E019F8010B7E
:104320005A460F999047761C0899481E0890002914
:10433000F4DC641CC5E6000009280100303132338A
:1043400034353637383961626364656600000000D1
:1043500030313233343536373839414243444546BB
:104360000000000064261A4C052500BFFCF736FE4D
:10437000616A401AFBF7B2FF2169FBF73FFFFBF7C9
:10438000B6FF90FBF6F060690021C0F10302072A36
:1043900003D301206161A07003E00021A170002817
:1043A00006DB6069801C90FBF5F000EB800006E006
:1043B000C0F1020090FBF5F000EB800040420146A6
:1043C000E062A06BFDF726FE642000F0E9FACDE77D
:1043D0003C010020002486B001218DF810402646C3
:1043E000254627464FF4FA734FF4A072084600940E
:1043F000FDF7F8F90DF10C09FCA10094CDE90119C4
:10440000FC4B01220A214FF41670FEF773F9DFF816
:10441000E88303A9C8F83C00FEF7B2F9F7A1CDE99B
:104420000041F84B0122CDF808900A214FF42F707B
:10443000FEF760F903A9C8F84000FEF7A1F964206F
:1044400000F0AEFAF0A0FFF70DFEDFF8D0B3C246E1
:10445000A14603AA00215446DAF83800FDF776FD9C
:10446000E06A46F2A81188421ADD01214C464FF459
:10447000FA734FF4A0720846CDF80090FDF7B2F938
:104480001820E7A1CDE900103223C8220294194672
:104490006420FFF76EF9EC490127C1F88871D8E76D
:1044A000012F0DD1E8490027C1F8889101214FF46F
:1044B000FA734FF4A0720846CDF80090FDF792F918
:1044C0002078012808D1A078012805D1C4F81890D7
:1044D00084F8019084F80090A246A06A00F076FD6E
:1044E000E16A00290BDBDAF8182051434FF47A72A5
:1044F00001F5FA71B1FBF2F1CAF81C1001E0CAF83B
:104500001C900020D8464C4608F80040401CC0B221
:104510004028F9D3CDA0FFF7A5FD88F80040012180
:1045200088F8011088F80240C346404688F80340E6
:104530004FF0080880F8048004214171DAF82C104B
:1045400081710A0AC2710A0C0272090E41728BF85B
:104550000A404022B1490120FFF7BEFC9AF8090049
:1045600001287DD18AF80940BCA0FFF77BFD00211E
:1045700058464454491CC9B24029FAD30470022158
:1045800041708470C47080F8048004214171A34A92
:104590009AF80830903252F8232082714FEA122C98
:1045A00080F807C04FEA124C80F808C0120E427221
:1045B0000F228272C1729AF80720C2EB021CAB4A2A
:1045C00002EB4C0212F81ECC80F80CC012F81DCC85
:1045D00080F80DC012F81CCC80F80EC012F81B2C0D
:1045E000C2730D2202748D4A4174683252F823203E
:1045F00082744FEA122C80F813C04FEA124C80F8F4
:1046000014C0120E42750E228275844AC175403262
:1046100052F8232002764FEA122C80F819C04FEA94
:10462000124C80F81AC0120EC2761022027741771F
:10463000DAF8201081770A0AC2770A0C80F8202065
:10464000090E80F821100A2180F82210012180F83B
:10465000231080F824308BF8254040226F4900E079
:1046600005E00120FFF738FC81A0FFF7FBFC9AF87A
:104670000A00D04601281AD188F80A40002059467D
:104680000C54401CC0B24028FAD30C70042048706F
:104690008C70CC708BF804400A2000F081F9402225
:1046A0005E490120FFF718FC74A0FFF7DBFC98F8C7
:1046B0000B00012829D188F80B40424688F80040B9
:1046C000002059460C54401CC0B24028FAD30C704C
:1046D000032048708C70CC700A200871012048714A
:1046E00098F8080088718BF807400A2000F058F904
:1046F00040224A490120FFF7EFFB98F80800401ECE
:1047000088F8080061A0FFF7ADFC98F8020058B9DE
:10471000D8F82C00002807DD0C2387225F210A200F
:104720000094FCF77FFF06E01E231A460A2155205D
:104730000094FDF757F898F80300012803D098F883
:10474000061001292ED1761C01280AD12A490520FC
:10475000F431CDE900011923492232216420FCF70C
:10476000E6FF98F8060001280AD123480521F93010
:10477000CDE900101923492232216420FCF7D7FF2C
:10478000032E0FD91C4888F8034088F80640FE30F5
:104790000521CDE900100026192349223221642089
:1047A000FCF7C5FF98F80000009401287CD01E2378
:1047B0001A460A219620FDF715F8182037A1CDE9F1
:1047C000001060237822029450216420FEF7D1FF6C
:1047D00004A9D8F82C0001F025F908F1180007C841
:1047E00000F072FC0C237D2205215EE0746D7231B5
:1047F00000000000795500083C010020746D723201
:1048000000000000A1550008636F6E74726C207484
:1048100061736B2066696E6973680A00300A002054
:10482000D6D8C1BFB3ACB3F6C1BFB3CCA3ACC7EB52
:10483000B7C5D6C3D0A1D3DA3235C7A7BFCBB5C46D
:10484000CEEFC6B7A3A100000000224273656E64DC
:1048500020666C616720310A0000000073656E6499
:1048600020666C616720320A00000000FC05002011
:1048700061646420676F6F6473200A00636C656114
:104880007220676F6F64730A0000000072656D6FBD
:10489000766520676F6F64730A0000002020202077
:1048A000202020202020000010E04FF4C870009449
:1048B000FCF7B8FE0C237E2205210A200094FCF7A9
:1048C000B1FE98F801006D1C38B11EE00C237F2268
:1048D000A0210A20FCF7A6FE7AE7032D03D84FF6A5
:1048E000FF70009000E00094B3234FF4C472AF2136
:1048F00040F27910FCF78EFDB3234FF4D072AF2154
:1049000040F291100094FCF785FD98F80100012811
:104910001BD1032D4FF0B3034FF4C4724FF0AF011E
:1049200040F27910009405D8FCF774FD4FF6FF7043
:10493000009002E0FCF76EFD0094B3234FF4D072B8
:10494000AF2140F29110FCF765FD062D7FF4A7AD75
:1049500000257EE510B56FF00400FFF7F7F80D486D
:104960000D4A01680D48B1FBF2F3B1FBF2F141F2DF
:10497000883251430370052242804FF0E0200269E3
:1049800042F0020202614161016941F001010161ED
:1049900010BD00000000002000127A00D6040020A4
:1049A00070B504460C48007878B10C48007860B9BE
:1049B0000B4D6888844203D3B4FBF0F0FDF708FE8A
:1049C0006888B4FBF0F100FB11444FF47A70604347
:1049D000BDE8704000F006B8F7030020F2030020A5
:1049E000D60400202DE9F0414FF0E026002477693D
:1049F0000C49097800FB01F5FDF732FBB069B1699C
:104A00008142FCD002D2A0EB010002E0A7EB010240
:104A1000104404440846AC42F1D3BDE8F041FDF730
:104A200035BB0000D604002010B5FFF783FA212221
:104A300005490648FFF7BAFA04480078AA2801D0C9
:104A4000012010BD002010BD00604E00F6240020A3
:104A500004490A885206FCD5024AC1B2121D1180CF
:104A60007047000000380140034604200A5C4AB148
:104A70009A4206D00A18801C52781044402801D06F
:104A8000F4D370474FF0000070470000F0B585B0D8
:104A90000646002514216846FBF7A5FB4448454C13
:104AA0004FF0010250F826006378A169B0F1FF3F92
:104AB0004FF00A0715D02578002D0CD133B1B1FB8A
:104AC000F7F207FB1212891A084408E042F2107349
:104AD000994202D3E27005B0F0BD084451E0A061F4
:104AE000F9E73448D0F828C00020142E1CD007DC89
:104AF000002EF0D00A2E0CD00B2EECD16270EAE71B
:104B0000222E31D02B2E37D02C2EE4D199B3A06198
:104B10004BE0616941F2833261449142DBDCA16286
:104B20000529D8DAA062D6E7BCF1000FD3DCE06A31
:104B3000B0F5FA7FCFDC0028CDD06E46FCF74EFAF8
:104B400046F825006D1CEDB2052DF7D3DDE9000117
:104B50000844DDE90212114408440499084405217F
:104B600090FBF1F06062B6E720722062A0612070D5
:104B70006070A272AFE70FE0012B06D06420B1FB9A
:104B8000F0F000EB80004000A9E7B1FBF7F101EB8A
:104B900081014900A16108E0217A31B1E272064A3F
:104BA00052F82110226A511A2162607093E70000C6
:104BB0005C0200203C010020700A00202DE9FE4329
:104BC000394E0546002456F82500401C3AD04FF0D7
:104BD000180936A2CDE90029A0466023CDF8088047
:104BE000782250216420FEF7C4FD56F82550324843
:104BF000C5EB051100EB4101012211F81E3CA6F5A1
:104C0000F470FF2B01D06BB115E011F81D3CFF2BA8
:104C100011D111F81C3CFF2B0DD111F81B3CFF2BBF
:104C20000FD008E011F81D3C2BB911F81C3C13B94A
:104C300011F81B3C2BB1037A092B1FD206781EB149
:104C400019E04271BDE8FE835B1C0270DBB21B4FB2
:104C50000372DFF868C0C66947F823600CF1280CBE
:104C600087694CF823700CF1280CC76A4CF8237044
:104C7000036A33440362C571427200E082710F48D7
:104C80005A380A1912F81A2C0255641CE4B21A2C6C
:104C9000F7D3CDE90009602378225021CDF80880B0
:104CA0006420FEF766FDCDE72403002020202020AD
:104CB0002020202020200000FC050020700A002079
:104CC0008EB00025142107A8FBF78DFA1C21684639
:104CD000FBF789FA4FF0010B714F0024A7F1280A66
:104CE0000AEBC4085AF83400B8F80410FCF772F95B
:104CF0000520FFF755FE002607EBC60957F83600DA
:104D0000B9F80410FCF75FF9E8B307A80BFA06F14D
:104D100050F824208A4340F82420761CF6B2052E51
:104D2000EAD3B8F804105AF83400FCF755F9641CBB
:104D3000E4B2052CD4D35A4F00246037A7F1380AC7
:104D40000AEBC4095AF83400B9F80410FCF742F928
:104D50000520FFF725FE002607EBC60857F83600AA
:104D6000B8F80410FCF72FF9F0B35DF824200BFA23
:104D700006F18A434DF82420761CF6B2052EEBD3BB
:104D8000B9F8041000E010E05AF83400FCF724F9F8
:104D9000641CE4B2072CD3D31420FFF701FE404873
:104DA0006C380179012956D060E00220FFF7F8FD48
:104DB000B9F8041057F83600FCF705F90028ACD113
:104DC00007AA04EB840152F8242006EB41010BFAF8
:104DD00006F9C9B212EA090F0CD132A00C91FFF703
:104DE00041F92F496C3900E00CE081F804B00C98CF
:104DF000FFF74CFE07A850F8241041EA090140F8DB
:104E000024108AE70220FFF7CBFDB8F8041057F80A
:104E10003600FCF7D8F80028AED106EB86005DF826
:104E2000242004EB40000BFA06F8C1B212EA080F86
:104E30000AD121A00C91FFF715F919486C3880F8B8
:104E400004B00C98FFF7BAFE5DF8241041EA08019F
:104E50004DF8241090E71D496D1CEDB2C1F888B1E2
:104E6000012D03D900250571C1F888514179012927
:104E70007FF432AF15496D1CEDB25A46C1F888B1C6
:104E8000012D09D0022D04D0032DF1D100252A4691
:104E90004571C1F888211FE70020C1F888011BE790
:104EA000A80100206B6579706164203E3E3E203190
:104EB0006E756D2025640A006B6579706164203E13
:104EC0003E3E20326E756D2025640A0000002242AD
:104ED00010B503A0FFF7C6F8BDE81040FCF7DCBA38
:104EE0006C636420696E69740A00000008B54FF4B1
:104EF000A060FCF7C9FEFFF72DFD4FF4E13000F094
:104F000061FBFFF7E5FFFCF783FCFBF7FFFAFBF71C
:104F100019FB1FA0FFF7A6F86420FFF741FDFFF77C
:104F200083FDFCF797F9FCF7D3F9FEF755FFFEF781
:104F300033FBFEF73DFFFBF7BBFA00F0ADF8FFF7E0
:104F40007FF86420FFF72CFD194800909823AC22CD
:104F5000A4214A20FCF784FA6420FFF721FD00F029
:104F6000E5FC3220FFF71CFDFCF766F900F0EEF9D6
:104F7000FCF7FEFE0A230F4A00210F48FDF764F9F3
:104F8000FDF748F90DA0FFF76DF8002008BD0000FF
:104F900068646D6920617564696F206D6F746F203E
:104FA00020696E69742066696E6973680A00000082
:104FB0004C5C0008E40C0020F15400086D61696E3F
:104FC0002066696E6973680A0000000030B587B01A
:104FD00000242FA103940494059409682D4D069193
:104FE000002848DD2D218DF80C104FF47A7290FBCB
:104FF000F2F130318DF80D102E218DF80E1090FB4E
:10500000F2F102FB1101642291FBF2F130318DF8D3
:105010000F1090FBF2F102FB11020A2192FBF1F258
:1050200030328DF8102090FBF1F201FB12000521C7
:10503000801C90FBF1F000EB800030308DF8110007
:1050400006A90220CDE900018DF812401923AA22F9
:105050000F216420FCF73EFB182003A9CDE90010C6
:105060001923C82202940F21A020FEF782FB012001
:10507000287007B030BD2878012806D18C23232260
:1050800064210F200094FCF7ADFB2C70F1E70000C9
:105090009C9D00004804002070B5094D094E002475
:1050A000C4EB0410C4EB041105EB41010F2206EB25
:1050B0004000FEF7BBF8641C232CF1D370BD000048
:1050C000FC050020000007082DE9F04F8FB00024F8
:1050D0000F460B94059406944FF0180898A10A9473
:1050E000CDE900180C940D940E94164605460394D1
:1050F000049407944FF4D7790894099419236422EF
:10510000029496214846FEF734FB8DA1CDE90018A4
:10511000192364220294FA214846FEF72AFB42F240
:105120001070B5FBF0F111F0FF018DF82C104FF06D
:105130000B0401D18DF82C40B5FBF0F100FB1151AF
:1051400080464FF47A70B1FBF0F1C9B28DF82D10A2
:105150009DF82C200B2A02D109B98DF82D40B5FB02
:10516000F0F14FF0640B814600FB11505946B0FB43
:10517000F1F0B5FBFBF28DF82E000BFB12510A206B
:10518000B1FBF0F18DF83010B5FBF0F18DF82F0088
:1051900000FB11508DF831000BA90620CDE900016C
:1051A0001923AA227D214FF48C70FCF7EDFA654893
:1051B000B7FBF0F111F0FF018DF80C1001D18DF863
:1051C0000C406048B7FBF0F100FB11705E49B0FB8A
:1051D000F1F0C0B28DF80D009DF80C200B2A02D121
:1051E00008B98DF80D408A46B7FBF1F10AFB117141
:1051F0004046B1FBF0F1C9B28DF80E109DF80D20BC
:105200000B2A02D109B98DF80E40B7FBF0F108FB6B
:1052100011714846B1FBF0F1C9B28DF80F109DF83D
:105220000E200B2A02D109B98DF80F40B7FBF0F11F
:1052300009FB11715846B1FBF0F18DF81010B7FB66
:10524000FBF10BFB11700A25B0FBF5F08DF8115046
:105250008DF81200B7FBF5F005FB10708DF8130008
:1052600003A80827CDE900701923AA22E121E8202C
:10527000FCF78AFA3348B6FBF0F111F0FF018DF824
:105280001C1001D18DF81C40B6FBF0F100FB116140
:105290005046B1FBF0F1C9B28DF81D109DF81C20ED
:1052A0000B2A02D109B98DF81D40B6FBF0F10AFBBB
:1052B00011614046B1FBF0F1C9B28DF81E109DF8A6
:1052C0001D200B2A02D109B98DF81E40B6FBF0F162
:1052D00008FB11614846B1FBF0F1C9B28DF81F100F
:1052E0009DF81E200B2A02D109B98DF81F40B6FB8C
:1052F000F0F109FB11615846B1FBF0F18DF8201077
:10530000B6FBFBF10BFB1160B0FBF5F08DF8215003
:105310008DF82200B6FBF5F005FB10608DF8230038
:1053200007A8CDE900701923AA22E1212820FCF763
:105330002BFA0A20FFF734FB0FB0BDE8F08F000016
:10534000D4AA000040420F00A08601002DE9FE43D0
:105350004D4CA1882068FBF73DFEA18C206AFBF72D
:1053600039FE0120FFF71CFB2834A1882068FBF7D9
:105370002AFE00287ED10220FFF712FBA1882068B8
:10538000FBF721FE00287BD1A18C206AFBF71BFED6
:10539000002875D10220FFF703FBA18C206AFBF7E0
:1053A00012FE00286CD1002501214FF4FA734FF44E
:1053B000A07208460095FCF715FA344F1826A1880C
:1053C0002068FBF700FE0028F9D0DFF8C48031A088
:1053D000CDE900063223C822194602956420FEF763
:1053E000C8F9FBF7FBFD3968401A40454ADDFAF77A
:1053F00075FF01462E48FAF733FFDFF8B890C9F879
:1054000000001420FFF7CCFAFBF7E8FD3968401ADA
:10541000FAF764FFD9F80010FAF7F0FEFAF767FF21
:1054200025490844B0F5F97F0FD824A0CDE900063E
:105430003223C822962102956420FEF79AF9494644
:1054400002222248FDF700FF09E021A0CDE9000675
:105450003223C822962102956420FEF78AF9A1889A
:105460002068FBF7B0FD0028B1D10220FFF798FAC1
:10547000A18800E004E02068FBF7A5FD0028A6D184
:10548000BDE8FE8316A0E1E74C0400206001002087
:1054900040420F00C7EBB7C5D6C331304B67EDC0F4
:1054A000C2EBBDF8D0D0D0A3D7BCCFB5CAFD0000A9
:1054B000002474494C010020B9BEF0FFD0A3D7BC32
:1054C000B3C9B9A620202020000000000000050874
:1054D000D5FDD4DAD6D8D0C2D0A3D7BC0000000006
:1054E000EDC0C2EBD6D8C1BFB2BBD7E3000000000D
:1054F00010B50020FCF70AFD164C20630020FCF7D5
:1055000005FD60630020FCF701FDA063FAF70AFEC9
:1055100004460523104A00211048FCF795FE03239A
:105520000F4A00210F48FCF78FFE04230E4A00218A
:105530000E48FCF789FE06230D4A00210D48FCF7B2
:1055400083FE0A20FCF7FAFF2046BDE81040FAF778
:10555000EDBD00003C010020E40E0020D543000812
:10556000E4100020F5580008E4120020C14C0008A7
:10557000E41400206543000808B5FBF7F7FD064971
:105580000020C1F880010246014604486B46C06B0A
:10559000FDF728F908BD0000000023423C0100206F
:1055A000064908B50120C1F8BC01054800226B4638
:1055B0001146006CFDF716F908BD000000002142FD
:1055C0003C01002070B5054686B0012144F204007C
:1055D000FDF7D2FC4FF40070ADF8100003248DF8F5
:1055E000124018201D4E8DF8130004A93046FBF719
:1055F00099FC3015ADF8100004208DF8130004A9B3
:105600003046FBF78FFC25208DF814008DF81540EF
:105610008DF8164001208DF8170005A8FCF702FB55
:105620000020ADF80400ADF80600ADF80800ADF8B4
:105630000C000C200A4CADF80A0000956946204683
:10564000FEF740FB012240F225512046FEF721FBE8
:1056500001212046FEF7F4FA06B070BD00080140B3
:1056600000380140F0B589B0044620216846FAF7B9
:10567000BAFD2078002838D16078002835D1A0788C
:10568000012832D1E07800282FD12AA0FEF7EAFCC9
:1056900021461120FFF7E8F9002826D0204441795F
:1056A00086780A02017911430A02C178114356EA49
:1056B000012619D0232E17D821460F20FFF7D4F941
:1056C000010011D000206D460A18224492782A5415
:1056D000401C0428F8D321461220FFF7C5F9010029
:1056E00002D00020621808E0002009B0F0BD0B18BD
:1056F00023442F189B783B71401C53788342F6D883
:10570000104AC6EB0611002002EB41022B5C141874
:10571000401C04F81E3C1E28F8D30B480F2200EB57
:1057200041006946FDF790FD3220FFF739F901206D
:10573000DBE7000075706461746520626567696EFF
:105740000A000000FC050020E2FF06082DE9F047F2
:1057500098B040216846FAF746FD0026202110A89F
:10576000FAF741FD544C694601202268FEF710FB10
:10577000206800287ED00A20FFF712F99DF800006B
:10578000002877D19DF80100002873D19DF8020010
:10579000DFF828910024012514274FF0050802287E
:1057A00034D19DF80300002864D189F80C5044A03E
:1057B000FEF758FC0520FCF7C1FEDFF814A100BF7E
:1057C000C6EB06110AEB41000F2210A9FDF73CFDC4
:1057D000761C232EF4D38DF800408DF801808DF8CF
:1057E00004708DF802408DF805508DF803408DF857
:1057F0000650402269460120FEF76EFB9DF800002E
:10580000002855D19DF80100002851D19DF80200D3
:10581000032827D19DF80300002849D189F80C40BE
:105820002CA0FEF71FFC8DF8004006208DF801002B
:105830008DF804708DF802408DF805508DF8034006
:105840008DF80650402269460120FEF745FB0520F1
:10585000FCF7BAFD9DF80000002829D19DF8010051
:10586000002825D19DF80200012821D19DF80300D0
:10587000002800E01CE01BD119A0FEF7F3FB6846EE
:10588000FFF7F0FE8DF800408DF801808DF8047070
:105890008DF802408DF805508DF803408DF80650C4
:1058A00008B98DF80740402269460120FEF714FB35
:1058B00018B0BDE8F08700005C0000203C0100202B
:1058C000626567696E207369676E616C0A0000002B
:1058D00000000708656E64207369676E616C0A00DA
:1058E00070616E206475616E207375636365737398
:1058F000200A000008B5084D084C09A0FEF7B2FBCD
:105900006A460021686BFCF721FB20680028F4D070
:10591000FFF71CFFF1E700003C0100205C000020C5
:10592000757362207461736B0A0000002DE9F04703
:1059300088B00024142103A8FAF755FCDFF8C890BA
:10594000072509F107074FF48278FE1D0DF10C0AB7
:10595000CDE900591923AA224146A420FBF7BAFE3B
:105960006420FFF71DF8CDE900571923AA2241460C
:10597000A420FBF7AFFE6420FFF712F8CDE9005634
:105980001923AA224146A420FBF7A4FE6420FFF7B6
:1059900007F8FBF723FB4AF82400641CE4B2D44662
:1059A000052CD5D303995FF000030A465CF8230069
:1059B000884200DD0146904200DA02465B1CDBB201
:1059C000052BF3D3881AFA2810DCDDE9030108441B
:1059D000DDE905121144084407990844052190FBAC
:1059E000F1F00A49486208B0BDE8F08700241825A4
:1059F00007A0CDE900053223C8221E2102942D20E4
:105A0000FDF7B7FEF4E700003F0200203C01002054
:105A1000BBCEB6AFD2ECB3A3C7EBD6D8C6F4A3A126
:105A20000000000070B588B000250E4604460595BC
:105A300018202CA10695CDE900100395049532237A
:105A4000C822029523214FF4D770FDF792FE42F24F
:105A50001070002C06DA0D2164428DF80C10012123
:105A600031700AE094FBF0F1357011F0FF018DF810
:105A70000C1002D10B218DF80C1094FBF0F100FBFF
:105A800011404FF47A7190FBF1F094FBF1F201FBBD
:105A90001242642192FBF1F28DF80D000A208DF87C
:105AA0000E008DF80F2094FBF1F201FB124191FBE7
:105AB000F0F18DF8101094FBF0F100FB11408DF81F
:105AC000110003A90620CDE900011923AA221E21F5
:105AD0004FF48C70FBF758FE0A20FEF761FF08B008
